:020000040800F2
:100000000000022081440008E5060008E706000819
:10001000E9060008EB060008ED06000800000000F5
:10002000000000000000000000000000EF060008D3
:10003000F106000800000000F3060008F5060008BD
:10004000D1440008D1440008D1440008D14400083C
:10005000D1440008D1440008D1440008D14400082C
:10006000D1440008D1440008D1440008D14400081C
:10007000D1440008D1440008D1440008D14400080C
:10008000D1440008D1440008D1440008D1440008FC
:10009000D1440008D1440008D1440008D1440008EC
:1000A000D1440008D1440008D1440008D1440008DC
:1000B000D1440008D1440008D1440008D1440008CC
:1000C000D1440008D1440008D1440008D1440008BC
:1000D000D1440008D1440008D1440008D1440008AC
:1000E000D1440008D1440008D1440008D14400089C
:1000F000D1440008D1440008D1440008D14400088C
:10010000D1440008D1440008D1440008D14400087B
:10011000D1440008D1440008D1440008D14400086B
:10012000D1440008D1440008D1440008D14400085B
:10013000D1440008D1440008D1440008D14400084B
:10014000D1440008D1440008D1440008FD0600084D
:10015000D1440008D1440008D1440008D14400082B
:10016000D1440008D1440008D1440008D14400081B
:10017000D1440008D1440008D14400080000000028
:08018000D1440008D14400083D
:1001880053B94AB9002908BF00281CBF4FF0FF31F6
:100198004FF0FF3000F00CB8ADF1080C6DE904CE5B
:1001A80004F0E0FADDF804E0DDE9022304B070476A
:1001B800704700BF10B5054C237833B9044B13B111
:1001C8000448AFF300800123237010BD7C00002099
:1001D800000000000C4A000808B5034B1BB1034996
:1001E8000348AFF3008008BD000000008000002035
:1001F8000C4A00082DE9F04F8DB0002407940894AC
:1002080009940A940B940194564B1A6B42F010020D
:100218001A631A6B02F010020192019A02941A6B87
:1002280042F004021A631A6B02F004020292029A64
:1002380003941A6B42F080021A631A6B02F0800270
:100248000392039A04941A6B42F001021A631A6B20
:1002580002F001020492049A05941A6B42F0020219
:100268001A631A6B02F002020592059A06941A6B39
:1002780042F008021A631B6B03F008030693069BFF
:10028800394E22460821304600F01AFCDFF8E0908B
:1002980001221146484600F013FCDFF8D8802246B8
:1002A8004FF21001404600F00BFC08270797012584
:1002B800089509940A9407A9304600F00BFB0795A6
:1002C800089509940A9407A9484600F003FB079784
:1002D8000227089709940A944FF0050ACDF82CA034
:1002E80007A9484600F0F6FA07954FF49019CDF89B
:1002F8002090099407A91D4800F0ECFA04230793FD
:1003080008940994DFF870B007A9584600F0E2FA9B
:100318004FF480630793089709940A94CDF82CA0AA
:1003280007A9584600F0D6FA4FF21003079308952C
:1003380009940A9407A9404600F0CCFA20230793B1
:100348000894099407A9404600F0C4FA0797CDF825
:100358002090099407A9304600F0BCFA0DB0BDE81A
:10036800F08F00BF00380240001002400000024039
:1003780000080240000C02400004024072B6FEE78A
:1003880008B50A480A4B03600A4B436000238360A0
:10039800C3604FF48042026143618361C3610362B9
:1003A80001F03AF900B908BDFFF7E8FF380100206D
:1003B80000540040A086010008B50A480A4B0360B3
:1003C8004FF40072426000238360C3600261074AF1
:1003D80042618361C361036201F0FCF900B908BDA1
:1003E800FFF7CCFFF0000020003C00400077010040
:1003F80008B50D480D4B03604FF48273436000232A
:100408008360C360036143614FF400728261C3611A
:100418000362436283620A23C36202F0EDF800B903
:1004280008BDFFF7ABFF00BF980000200030014077
:1004380000B595B03022002108A804F0FDF800238B
:10044800039304930593069307930193214A116C30
:1004580041F080511164126C02F080520192019AAD
:1004680002931D4B1A6842F480421A601B6803F419
:1004780080430293029B012308934FF4803309932E
:1004880002230E934FF480020F92082210924FF429
:10049800A872119212930723139308A801F098FCED
:1004A80098B90F23039302230493002305934FF471
:1004B800A05306934FF480530793052103A801F036
:1004C800F1FE20B915B05DF804FBFFF757FFFFF701
:1004D80055FF00BF003802400070004008B500F02A
:1004E80041F9FFF7A5FFFFF785FEFFF749FFFFF783
:1004F80063FFFFF77DFF03F061FE03F07FFEFCE77B
:1005080000B583B0002100910C4B5A6C42F4804234
:100518005A645A6C02F480420092009A01911A6C53
:1005280042F080521A641B6C03F080530193019BC4
:10053800072000F08BF903B05DF804FB0038024097
:1005480030B589B00023039304930593069307936A
:100558000268144B9A4201D009B030BD00250195BC
:10056800114C236B43F002032363236B03F0020354
:100578000193019B4FF410730393122304930123F7
:1005880005930423079303A9084800F0A3F90295EB
:10059800236C43F400132364236C03F400130293C5
:1005A800029BD9E700540040003802400004024092
:1005B80070B58CB000230793089309930A930B93A3
:1005C80003930493059306930268254B9A4201D03E
:1005D8000CB070BD01230393C02304930223059339
:1005E80003A801F025FF002837D1002400941D4BF3
:1005F8001A6C42F400421A641A6C02F40042009227
:10060800009A01941A6B42F001021A631A6B02F005
:1006180001020192019A02941A6B42F004021A63D1
:100628001B6B03F004030293029B1023079302261B
:10063800089609940A9406250B9507A90A4800F01C
:1006480049F94FF4A4530793089609940A940B9513
:1006580007A9064800F03EF9BAE7FFF78FFEC4E79E
:10066800003C004000380240000002400008024000
:1006780000B589B000230393049305930693079369
:100688000268144B9A4202D009B05DF804FB0021BD
:10069800019103F584335A6C42F480525A645A6CBF
:1006A80002F480520192019A02911A6B42F00102FF
:1006B8001A631B6B03F001030293029BE02303936D
:1006C800022304930523079303A9034800F002F9C2
:1006D800DAE700BF0030014000000240FEE7FEE715
:1006E800FEE7FEE7FEE770477047704708B500F081
:1006F80053F808BD08B5024800F0A3FE08BD00BFC6
:100708006C050020034AD2F8883043F47003C2F81D
:100718008830704700ED00E010B504460E4B1A789B
:100728004FF47A73B3FBF2F30C4A1068B0FBF3F0A2
:1007380000F0BCF868B90F2C01D901200AE00022AA
:1007480021464FF0FF3000F093F8054B1C60002065
:1007580000E0012010BD00BF0400002000000020C0
:100768000800002008B50B4B1A6842F400721A60A2
:100778001A6842F480621A601A6842F480721A6039
:10078800032000F063F80020FFF7C6FFFFF7B8FE6C
:10079800002008BD003C0240034A1168034B1B7847
:1007A8000B441360704700BF8C0100200400002038
:1007B800014B1868704700BF8C01002038B504460B
:1007C800FFF7F6FF0546B4F1FF3F02D0044B1B7854
:1007D8001C44FFF7EDFF401BA042FAD338BD00BF11
:1007E80004000020002808DB0901C9B200F16040BC
:1007F80000F5614080F80013704700F00F00090110
:10080800C9B2014B1954704714ED00E000B500F06F
:100818000700C0F1070CBCF1040F28BF4FF0040C0F
:10082800031D062B0FD9C31E4FF0FF3E0EFA0CF026
:1008380021EA000199400EFA03FE22EA0E0241EA7B
:1008480002005DF804FB0023EEE70000074AD368C6
:1008580023F4E0631B041B0C000200F4E060034374
:1008680043F0BF6343F40033D360704700ED00E00A
:1008780010B50446054BD868C0F30220FFF7C6FF41
:1008880001462046FFF7AEFF10BD00BF00ED00E0B7
:10089800002807DB00F01F02400901239340024AA9
:1008A80042F82030704700BF00E100E00138B0F1A5
:1008B800807F0BD24FF0E0235861054AF02182F87F
:1008C80023100020986107221A61704701207047A1
:1008D80000ED00E000230F2B00F2E98070B582B034
:1008E80065E085684FEA430E032404FA0EF425EA0E
:1008F8000405CC6804FA0EF42C438460446824EAA6
:1009080002044A68C2F300129A40224342605CE043
:10091800DC08083450F8242003F00705AD004FF038
:100928000F0E0EFA05FE22EA0E0E0A69AA4042EAE6
:100938000E0240F824205CE0072200E0002202FAC0
:100948000EF22A4302345A4D45F82420594A946835
:100958006FEA0C0224EA0C054E6816F4801F01D0D9
:100968004CEA0405534CA560E46802EA04054E68A5
:1009780016F4001F01D04CEA04054E4CE56064688B
:1009880002EA04054E6816F4003F01D04CEA04055B
:10099800484C6560246822404D6815F4803F01D0BA
:1009A8004CEA0402434C226001330F2B7DD801220C
:1009B8009A400C6804EA020C32EA0404F4D14C6848
:1009C80004F00304013C012C8BD94A6802F00302AD
:1009D800032A09D0C4685D000322AA4024EA02045D
:1009E8008A68AA402243C2604A6802F00302022AC7
:1009F8008ED004684FEA430E032202FA0EF224EA6C
:100A080002044A6802F0030202FA0EF2224302606C
:100A18004A6812F4403FC7D000220192264A546C1B
:100A280044F480445464526C02F480420192019A66
:100A38009C08A51C1E4A52F8255003F0030E4FEAE5
:100A48008E0E0F2202FA0EF225EA02051B4A904288
:100A58003FF474AF02F5806290421AD002F58062CA
:100A6800904218D002F58062904216D002F580625A
:100A7800904214D002F58062904212D002F5806252
:100A8800904210D002F5806290423FF455AF0822A0
:100A980055E7012253E7022251E703224FE70422D8
:100AA8004DE705224BE7062249E702B070BD7047C3
:100AB80000380140003C014000380240000002407C
:100AC8000AB181617047090481617047F8B5066809
:100AD800346A04F00F07C4F34343C4F30A14022B27
:100AE80000D0F8BD0546002CFBD02C2303FB0703E0
:100AF800596C0029F5D02C2303FB07031A6D2244F7
:100B0800DB6C9A4206D92C2303FB0705042385F8DE
:100B18006030E6E72246304601F0ADFE2C2303FBA9
:100B280007535A6C22445A641A6D22441A6506EB1C
:100B38004716D6F81025B3F84030A342D1D10B4B55
:100B48001340002BCDD0D6F8003523F0804343F076
:100B58000043C6F800352C2303FB075393F85420B1
:100B680082F0010283F85420BBE700BF0000F81FA1
:100B7800F0B585B004469DF828509DF82C60BDF866
:100B8800307090F8F802012837D0012084F8F80274
:100B98002C2000FB01404FF0000C80F83DC080F88D
:100BA8003830A0F8407080F8391080F83F6002F0C3
:100BB8007F0C80F83AC012F0800F16D12C2000FB71
:100BC80001404FF0000C80F83BC02C2000FB014096
:100BD80080F83C50029701960095206801F095FF37
:100BE800002384F8F83205B0F0BD2C2000FB01404A
:100BF8004FF0010C80F83BC0E7E70220F3E790F8DC
:100C0800F832012B0BD010B50446012380F8F832D6
:100C1800006802F012F8002084F8F80210BD0220E3
:100C2800704700284DD070B58AB00446056890F822
:100C3800F932002B40D0032384F8F932EB6B13F41C
:100C4800807F01D100232361206801F0A8FDA4461C
:100C58005CF8106BEE46BCE80F00AEE80F00BCE88D
:100C68000F00AEE80F009CE803008EE80300251D86
:100C780095E80E00304601F047FD0121206801F09B
:100C880025FEA4465CF8106BEE46BCE80F00AEE803
:100C98000F00BCE80F00AEE80F009CE803008EE8E8
:100CA800030095E80E00304601F042FE012384F867
:100CB800F93200200AB070BD80F8F83203F0A6FAC5
:100CC800B9E70120704770B59DF81050BDF818605D
:100CD8004FF02C0C0CFB010C8CF83B208CF83F30AF
:100CE8007DB964464FF0030C84F842C09DF81CC0DF
:100CF80084F83DC0032B00F28180DFE803F00A7915
:100D080029512C2404FB01044FF0020C84F842C042
:100D1800F0E7012D72D1002A70D12EB92C2303FBE4
:100D28000103012283F855202C2303FB010393F8C8
:100D3800553033B92C2303FB0103002283F84220EA
:100D48005CE02C2303FB0103022283F8422055E0D8
:100D580092B92C2303FB010393F855302BB92C23AC
:100D680003FB010383F8422048E02C2303FB010323
:100D7800022283F8422041E02C2303FB010393F86D
:100D8800543033B92C2303FB0103002283F842209B
:100D980034E02C2303FB0103022283F842202DE0D8
:100DA80092B92C2303FB010393F855302BB92C235C
:100DB80003FB010383F8422020E02C2303FB0103FB
:100DC800022283F8422019E02C2303FB010393F845
:100DD800543033B92C2303FB0103002283F842204B
:100DE8000CE02C2303FB0103022283F8422005E0D8
:100DF8002C2303FB0103002283F842202C2301FB50
:100E080003F3C218059C5464D664002482F8604039
:100E1800146582F8391082F8614003F13801027CC8
:100E28000144006801F08EFF70BD30B583B0044600
:100E38000568D5F840340193D5F840340093009BF9
:100E480023F02E030093019B13F0020F07D0019BA0
:100E580013F0010F25D1009B43F002030093019B7F
:100E680013F0080F10D0009B43F008030093019B78
:100E780013F0040F2DD0A369022B15D0E368012BC2
:100E880022D0204603F01FFA019B13F0200F03D055
:100E9800009B43F020030093009BC5F8403403B047
:100EA80030BD03F003FAD6E7019B03F4C023B3F582
:100EB800802F04D00121206801F0B6FDE1E702216E
:100EC800206801F0B1FDDCE74EF66022C5F8042485
:100ED800D7E7204603F0FDF9D6E7F8B504460E46F5
:100EE800076807EB411707F5A065AB6813F0040F17
:100EF8000AD1AB6813F4807F36D1AB6813F0200FAA
:100F08003FD02023AB600AE00423AB602C2303FB13
:100F18000103062283F86120006801F08EFEAB68A9
:100F280013F4007F5ED1AB6813F0010F00F09B80D3
:100F3800236943B12C2303FB06439A6C2969C1F347
:100F48001201521A1A652C2303FB0643012283F867
:100F580061200021D965AA6093F83F30032B4FD850
:100F6800DFE803F0485B485B4FF48073AB602C23E9
:100F780003FB0103072283F86120006801F05DFE8E
:100F8800CDE7AB6813F0080F13D1AB6813F4806F8B
:100F98001BD1AB6813F0800FC1D08023AB602C232A
:100FA80003FB0103062283F86120006801F045FE77
:100FB800B5E70823AB602C2303FB0103052283F864
:100FC8006120006801F039FEA9E74FF48063AB6047
:100FD8002C2303FB0103082283F86120006801F039
:100FE8002CFE9CE73146206801F027FE4FF4007381
:100FF800AB60F8BD3146206801F01FFE1023AB60DE
:101008002369012B1AD02C2303FB064393F85420A1
:1010180082F0010283F85420EBE7D7F8003543F05B
:101028000053C7F800352C2303FB0643012283F83D
:1010380060203146204603F045F9E1E72C2303FB05
:1010480006439A6CB3F84030B2FBF3F313F0010F88
:10105800CFD02C2303FB064393F8542082F00102DF
:1010680083F85420C5E7AB6813F0020F5DD02C233A
:1010780003FB064393F86130013B072B0BD8DFE8ED
:1010880003F0040A3B0A161D4A1D2C2303FB0643E2
:10109800012283F860200223AB602C2303FB064364
:1010A80093F860203146204603F00CF9A1E72C2381
:1010B80003FB0643052283F86020ECE72C2202FBA1
:1010C8000642D36D0133D365022B06D9134600229D
:1010D800DA65042283F86020DDE72C2303FB06434E
:1010E800022283F86020D7F8003523F0804343F0CC
:1010F8000043C7F80035CEE72C2303FB0643022242
:1011080083F86020D7F8003523F0804343F000438C
:10111800C7F80035BFE72C2303FB0643DA6D01321D
:10112800DA65042283F86020B5E7AB6813F0100F86
:101138003FF45FAF2C2303FB064393F83F30032BA8
:101148000CD00BB1022B06D12C2303FB0643002243
:10115800DA65236963B11023AB604AE72C2303FBEC
:1011680006430022DA653146206801F066FDF2E7A1
:101178002C2303FB0643032283F8612031462068B1
:1011880001F05BFDE7E738B5036803EB411202F5B0
:10119800A065AC6814F0040F19D1AC6814F0200FE6
:1011A80021D02023AB602C2303FB010393F83D30AF
:1011B800012B17D12C2303FB0103002283F83D20C8
:1011C800022283F86020006801F037FD0AE004235A
:1011D800AB602C2303FB0103062283F8612000681F
:1011E80001F02BFD38BDAC6814F4007F1FD1AC684A
:1011F80014F0010F22D02C2303FB01030022DA652F
:10120800AB6813F0400F07D02C2303FB0103012226
:1012180083F83D204023AB600122AA602C2303FB06
:10122800010383F86120006801F007FDDAE74FF455
:101238000073AB60006801F000FDD3E7AC6814F000
:10124800400F24D1AC6814F0080F31D1AC6814F009
:10125800100F39D02C2202FB01020024D46503248C
:1012680082F8614092F83D205AB92C2202FB010213
:1012780092F83C202AB92C2202FB0102012082F8B4
:101288003D00184601F0D9FC1023AB60AAE72C22D8
:1012980002FB0102042082F86100012082F83D006F
:1012A8000020D065184601F0C8FC4023AB6099E7E0
:1012B8000823AB602C2303FB0103052283F861207C
:1012C800006801F0BAFC8DE7AC6814F0800F25D0F7
:1012D800026982B12C2202FB0102D36D0133D3656E
:1012E800022B12D82C2303FB0103022283F860206F
:1012F8008023AB6076E72C2202FB0102062082F8ED
:101308006100184601F099FCF2E713460022DA65FD
:10131800042283F8602002F0D5FFE9E7AC6814F4F2
:10132800806F12D1AB6813F0020F3FF45BAF2C2330
:1013380003FB010393F86130013B072B4CD8DFE82E
:1013480003F0114B45555C634B632C2202FB0102F1
:10135800082082F86100184601F06FFC4FF48063A2
:10136800AB603FE72C2303FB0103012283F86020D5
:1013780093F83F30023BDBB293422DD8046944B95D
:101388002C2303FB010393F8552082F0010283F814
:101398005520012C20D12C2303FB0103DB6CDBB18E
:1013A8002C2202FB0102B2F840201344013BB3FB9C
:1013B800F2F313F0010F0FD02C2303FB010393F872
:1013C800552082F0010283F8552005E02C2303FB09
:1013D8000103022283F860200223AB602C2303FB65
:1013E800010393F8602002F06DFFFBE62C2303FB5A
:1013F8000103022283F86020EEE72C2303FB01039C
:10140800052283F86020E7E72C2404FB0104E36D40
:101418000133E365022B05D90022E265042284F832
:101428006020D9E72C2303FB0103022483F86040E2
:10143800D2F8003523F0804343F00043C2F800356A
:10144800CAE7F8B504460568284601F03BFA0128C2
:1014580000D0F8BD206801F031FA0028F9D02068E2
:1014680001F02CFA10F4001F03D023684FF4001287
:101478005A61206801F022FA10F4801F03D0236813
:101488004FF480125A61206801F018FA10F0806F4A
:1014980003D023684FF080625A61206801F00EFA89
:1014A80010F0020F02D0236802225A61206801F06E
:1014B80005FA10F0005F08D023684FF000525A6117
:1014C800D5F8403413F0010F1DD0206801F0F6F96B
:1014D80010F0807F26D1206801F0F0F910F0080F95
:1014E80024D1206801F0EAF910F0100F25D1206806
:1014F80001F0E4F910F0007FABD0206801F098FB10
:10150800074600262CE01021284601F04FF928460E
:1015180001F074F90121206801F086FA204602F0F2
:10152800CBFED2E72046FFF780FCD4E7204602F046
:10153800B7FE236808225A61D3E72268936923F02B
:10154800100393612046FFF7C1FA2268936943F0BC
:1015580010039361CBE7F1B22046FFF714FE013682
:10156800A368B34212D906F00F0327FA03F313F066
:10157800010FF4D005EB4613D3F8003513F4004FF0
:10158800E9D0F1B22046FFF7A8FCE8E723684FF05E
:1015980000725A615DE790F8F832012B0ED010B551
:1015A8000446012180F8F812006801F07BFA2068EF
:1015B80001F0EFF8002084F8F80210BD022070470F
:1015C80090F8F832012B0BD010B50446012380F8AF
:1015D800F832006801F06AFC002084F8F80210BDB7
:1015E8000220704708B5006801F03DFA08BD2C23B9
:1015F80003FB010090F8600070472C2303FB0100F7
:10160800006D704708B5006801F07AFA08BD08B5A2
:10161800006801F06AFA08BD002800F0CC8070B5B7
:10162800044690F83D30002B77D0242384F83D30D1
:101638002268136823F0010313602268136843F4D7
:10164800004313602268136823F40043136000F01A
:10165800DFFE62685A4B9A4264D85A4B98428CBF54
:1016680000230123002B40F0A8805749A1FB00313B
:101678008B0C25686A6822F03F0242EA91426A6050
:1016880021680A6A22F03F0266684D4DAE424FD883
:10169800013313430B622168CA6922F44F4222F0D6
:1016A800FF026568464B9D424CD8431E6D00B3FB54
:1016B800F5F3013340F6FC70034278D0C3F30B0313
:1016C8001A43CA6121680B6823F0C003E269206AE3
:1016D800024313430B6021688B6823F4034323F010
:1016E800FF032269E068024313438B602168CB68DB
:1016F80023F0FF036269A06902431343CB602268A9
:10170800136843F00103136000202064202384F849
:101718003D30206384F83E0070BD80F83C30FEF711
:101728000FFF82E7294B98428CBF0023012399E7DA
:101738004FF4967505FB03F3254DA5FB03539B0951
:101748000133A6E7A668BEB9431E05EB450CB3FBFB
:10175800FCF30133C3F30B03B3FA83F35B0943BB15
:10176800C6B9431E05EB4505B3FBF5F30133C3F3D7
:101778000B0343F40043A3E7431E05EB850C0CEB76
:101788008C0CB3FBFCF30133C3F30B03B3FA83F301
:101798005B09E4E7431E05EB850505EB8505B3FB0F
:1017A800F5F30133C3F30B0343F4404388E7042301
:1017B80086E7012384E7012070470120ACE700BFDA
:1017C800A08601007F841E0083DE1B43FF083D00C6
:1017D800D34D6210002800F0BF8038B5044690F859
:1017E8004130002B51D0022284F841202168CB6976
:1017F80023F47B6323F00F03CB6123681A626369C8
:10180800934263D0E368002B46D11025A368202BB0
:1018180000D86D00012000F0B5FE2369B3F5007F04
:101828003CD0B0FBF5F000EB800043006269B3FBED
:10183800F2F30533494AA2FB0323C3F3C002C2EB08
:10184800D3035B0811029A1EFD2A41D822690A4374
:1018580021681A430A622168CB6923F47B6323F069
:101868000F036268A0680243E0680243A06902436C
:10187800134343F40063CB61236A012B2ED000206D
:101888006064012384F8413038BD80F84030344B1F
:101898004363FEF78DFEA6E72025B7E7E36853B15B
:1018A800AD00B0FBF5F000EB800043006269B3FBCC
:1018B800F2F30533BEE7ED00B0FBF5F000EB800076
:1018C80043006269B3FBF2F30533B3E70021BAE7DB
:1018D800636C43F0100363640120D5E7214B636315
:1018E8002268214B9A421FD04FF04022D36923F43B
:1018F8007B6323F00F03D36122681B4B9A4215D0F8
:101908004FF0402302221A622268174B9A4210D0E5
:101918004FF04025EB699BB26268B2F5007F0AD0B0
:10192800C2B94FF4807008E0104ADFE7A3F580637E
:10193800E8E70E4DEEE74FF48070B4F808C0A189CF
:10194800228B40EA0C0001430A43134343F400632B
:10195800EB6194E70020F0E701207047CDCCCCCCB8
:10196800EF190008011C000800380040003400404E
:10197800704708B5426A03681288DA60436A02331E
:101988004362438D9BB2013B9BB24385438D9BB21F
:1019980003B108BD0268536823F0A0035360012314
:1019A80080F84130FFF7E4FFF3E7704708B50368B4
:1019B800DA68C36A1A80C36A0233C362438E9BB271
:1019C800013B9BB24386438E9BB203B108BD0268BC
:1019D800536823F060035360012380F84130FFF718
:1019E800E4FFF3E7704710B584B0044602689368D3
:1019F800039390F84130DBB2042B06D094F84130C1
:101A0800DBB2032B2CD004B010BD039B13F0010FE5
:101A180003D0536813F0400F1FD1039B13F0400FFE
:101A2800ECD023685A6812F0200FE7D05A6822F0E9
:101A380060025A60002301932368DA6801929B6868
:101A48000193019B012384F84130636C43F0020346
:101A580063642046FFF7C6FFD0E7FFF7A7FFDCE780
:101A6800039B13F0020F04D023685B6813F0800F08
:101A78001DD1039B13F0080FC5D023685A6812F0D4
:101A8800200FC0D05A6822F0A0025A6000230293A7
:101A980023689B680293029B012384F84130636C9E
:101AA80043F0040363642046FFF79CFFABE720463E
:101AB800FFF75FFFDDE7704708B5436A9A1C42628B
:101AC80002681B88D360438D9BB2013B9BB2438560
:101AD800438D9BB23BB90268536823F0A00353605F
:101AE800438E9BB203B108BD012380F84130FFF754
:101AF800E2FFF8E708B50268154B9A421CD04FF090
:101B08004023DA68C36A991CC1621A80438E9BB26B
:101B1800013B9BB24386438E9BB263B902680C4B70
:101B28009A420CD04FF04022536823F06003536070
:101B3800438D9BB22BB108BDA3F58063E1E7054A4D
:101B4800F2E7012380F84130FFF7B5FFF3E700BF64
:101B5800003800400034004008B5436A9A1C4262CD
:101B68001A880168134B994218D04FF04023DA6065
:101B7800438D9BB2013B9BB24385438D9BB263B9B6
:101B880002680C4B9A420CD04FF04022536823F065
:101B9800A0035360438E9BB22BB108BDA3F58063AD
:101BA800E5E7054AF2E7012380F84130FFF783FFB4
:101BB800F3E700BF003800400034004008B5036870
:101BC800DA68C36A991CC1621A80438E9BB2013BD2
:101BD8009BB24386438E9BB23BB90268536823F09D
:101BE80060035360438D9BB203B108BD012380F8A5
:101BF8004130FFF760FFF8E710B586B00446036888
:101C08009A680592704A93426FD04FF040229168CB
:101C180004915B680393536802936368B3F5007F8C
:101C280001D0002B70D1059B13F0020F03D0039B4A
:101C380013F0800F5CD1049B13F0010F03D0029BBB
:101C480013F0400F58D1049B13F0400F24D0029B8F
:101C580013F0200F20D022685B4B9A4250D04FF0EF
:101C68004022536823F0600353602268536823F0CE
:101C7800A0035360002300932368DA6800929B68EE
:101C88000093009B012384F84130636C43F0020306
:101C980063642046FFF7A6FE059B13F0080F22D0C9
:101CA800039B13F0200F1ED02268536823F0A00373
:101CB80053602268444B9A4224D04FF04022536824
:101CC80023F0600353600023019323689B6801930A
:101CD800019B012384F84130636C43F0040363647F
:101CE8002046FFF77FFE06B010BDA2F580628EE7A2
:101CF8002046FFF7E1FE9EE72046FFF7FBFEA2E73E
:101D0800324AAEE7314ADAE7049B13F0020F03D0F8
:101D1800029B13F0800F4AD1059B13F0010F03D0EB
:101D2800039B13F0400F46D1059B13F0400F1CD0C6
:101D3800039B13F0200F18D02268536823F0600328
:101D480053602268204B9A4239D04FF040225368A2
:101D580023F0A0035360012384F84130636C43F0FF
:101D6800020363642046FFF73DFE049B13F0080F4F
:101D7800B9D0029B13F0200FB5D02268124B9A42BB
:101D88001FD04FF04022536823F0A003536022680D
:101D9800536823F060035360012384F84130636C77
:101DA80043F0040363642046FFF71CFE9BE72046CC
:101DB800FFF7D2FEB0E72046FFF700FFB4E7034A7B
:101DC800C5E7024ADFE700BF0038004000340040A2
:101DD800002800F0E08170B582B00446036813F073
:101DE800010F3BD09F4B9B6803F00C03042B2CD0B6
:101DF8009C4B9B6803F00C03082B21D06368B3F558
:101E0800803F4FD0B3F5A02F52D0964B1A6822F4DA
:101E180080321A601A6822F480221A606368002BE4
:101E280050D0FEF7C5FC05468E4B1B6813F4003FE7
:101E380014D1FEF7BDFC401B6428F5D90320B1E19D
:101E4800884B5B6813F4800FD8D0864B1B6813F45B
:101E5800003F03D06368002B00F09F81236813F0D4
:101E6800020F54D07F4B9B6813F00C0F3ED07D4B74
:101E78009B6803F00C03082B33D0E368002B68D071
:101E8800794B01221A60FEF793FC0546754B1B68D7
:101E980013F0020F54D1FEF78BFC401B0228F5D932
:101EA80003207FE16F4A136843F480331360B5E77A
:101EB8006C4B1A6842F480221A601A6842F4803225
:101EC8001A60ABE7FEF774FC0546664B1B6813F413
:101ED800003FC3D0FEF76CFC401B6428F5D90320F3
:101EE80060E1604B5B6813F4800FC6D15D4B1B68E3
:101EF80013F0020F03D0E368012B40F05081594AD8
:101F0800136823F0F803216943EAC10313602368C7
:101F180013F0080F42D063696BB3534B0122C3F827
:101F2800802EFEF745FC05464E4B5B6F13F0020F03
:101F380034D1FEF73DFC401B0228F5D9032031E1DE
:101F4800484A136823F0F803216943EAC103136080
:101F5800DDE7454B00221A60FEF72AFC0546414B97
:101F68001B6813F0020FD2D0FEF722FC401B022898
:101F7800F5D9032016E13C4B0022C3F8802EFEF76A
:101F880017FC0546374B5B6F13F0020F06D0FEF7C0
:101F98000FFC401B0228F5D9032003E1236813F046
:101FA800040F77D02F4B1B6C13F0805F33D10023C5
:101FB80001932C4B1A6C42F080521A641B6C03F08C
:101FC80080530193019B0125284B1B6813F4807FE4
:101FD80023D0A368012B34D0052B38D0214B1A6F9E
:101FE80022F001021A671A6F22F004021A67A36826
:101FF800002B3DD0FEF7DCFB06461A4B1B6F13F097
:10200800020F46D1FEF7D4FB801B41F28833984279
:10201800F3D90320C6E00025D6E7144A136843F431
:1020280080731360FEF7C4FB0646104B1B6813F45D
:10203800807FCED1FEF7BCFB801B0228F5D9032098
:10204800B0E0084A136F43F001031367CFE7054B6D
:102058001A6F42F004021A671A6F42F001021A67F7
:10206800C5E700BF0038024000004742007000404A
:10207800FEF79EFB0646524B1B6F13F0020F08D06B
:10208800FEF796FB801B41F288339842F3D9032070
:1020980088E0EDB9A369002B00F08380484A926874
:1020A80002F00C02082A51D0022B17D0454B00220F
:1020B8001A66FEF77DFB0446414B1B6813F0007F50
:1020C80042D0FEF775FB001B0228F5D9032069E012
:1020D8003B4A136C23F080531364DBE7394B00222F
:1020E8001A66FEF765FB0546354B1B6813F0007F43
:1020F80006D0FEF75DFB401B0228F5D9032051E00E
:10210800E369226A1343626A43EA8213A26A5208A5
:10211800013A43EA0243E26A43EA0263284A536007
:10212800284B01221A66FEF743FB0446244B1B6822
:1021380013F0007F06D1FEF73BFB001B0228F5D900
:1021480003202FE000202DE000202BE0012B2BD0D6
:102158001B4B5B6803F48001E269914226D103F0CE
:102168003F02216A8A4223D1616A47F6C0721A4047
:10217800B2EB811F1ED103F44031A26A5208013A22
:10218800B1EB024F18D103F07063E26AB3EB026F50
:1021980014D1002006E001207047012002E0012050
:1021A80000E0002002B070BD0120FBE70120F9E744
:1021B8000120F7E70120F5E70120F3E70120F1E727
:1021C800003802400000474208B5334B9B6803F0D3
:1021D8000C03042B5BD0082B5BD12F4B5A6802F001
:1021E8003F025B6813F4800F2CD02B4B5868C0F368
:1021F80088104FEA401CBCEB000C6EEB0E0E4FEA49
:102208008E1343EA9C634FEA8C11B1EB0C0163EB2C
:102218000E03DB0043EA5173C90011EB000C43F1D4
:102228000003590200234FEA4C2041EADC51FDF734
:10223800A7FF194B5B68C3F3014301335B00B0FB95
:10224800F3F008BD144B5868C0F388104FEA401CDF
:10225800BCEB000C6EEB0E0E4FEA8E1343EA9C6348
:102268004FEA8C11B1EB0C0163EB0E03DB0043EA80
:102278005173C90011EB000C43F1000399020023CC
:102288004FEA8C2041EA9C51FDF77AFFD1E70348D9
:10229800D7E70348D5E700BF0038024000127A00AC
:1022A8000024F400002800F09B8070B50D46044619
:1022B8004F4B1B6803F007038B4208D2CBB24C4A42
:1022C8001370136803F007038B4240F08B80236878
:1022D80013F0020F17D013F0040F04D0454A936887
:1022E80043F4E0539360236813F0080F04D0414A85
:1022F800936843F4604393603E4A936823F0F00385
:10230800A1680B439360236813F0010F32D0636810
:10231800012B21D09A1E012A25D9364A126812F0BB
:10232800020F61D033498A6822F0030213438B609D
:10233800FEF73EFA06462F4B9B6803F00C036268D3
:10234800B3EB820F16D0FEF733FA801B41F28833C5
:102358009842F0D9032042E0264A126812F4003F5E
:10236800E0D101203BE0234A126812F0007FD9D166
:10237800012034E01E4B1B6803F00703AB4207D96A
:10238800EAB21B4B1A701B6803F00703AB422DD14E
:10239800236813F0040F06D0164A936823F4E05319
:1023A800E1680B439360236813F0080F07D0114AC4
:1023B800936823F46043216943EAC1039360FFF7FC
:1023C80003FF0C4B9B68C3F303130B4AD35CD84041
:1023D8000A4B18600A4B1868FEF79EF9002070BD7A
:1023E800012070470120FAE70120F8E70120F6E70D
:1023F800003C0240003802402C4A0008000000203F
:1024080008000020014B1868704700BF000000203A
:1024180008B5FFF7F7FF044B9B68C3F38223034A11
:10242800D35CD84008BD00BF00380240244A0008E9
:1024380030B583B00446036813F0050F06D123684E
:1024480013F0020F2ED1002003B030BD4A4B0022FA
:102458009A66FEF7ADF90546484B1B6813F0006F06
:1024680006D0FEF7A5F9431B022BF5D90320EBE7AD
:102478006268A3681B0743EA8213404AC2F88430A3
:102488003D4B01229A66FEF793F905463B4B1B68C4
:1024980013F0006FD3D1FEF78BF9431B022BF5D94C
:1024A8000320D1E700230193344B1A6C42F0805289
:1024B8001A641B6C03F080530193019B304A136824
:1024C80043F480731360FEF773F905462C4B1B68C1
:1024D80013F4807F06D1FEF76BF9431B022BF5D965
:1024E8000320B1E7254B1B6F13F4407314D0E26847
:1024F80002F440729A420FD0204B1A6F22F44072B5
:102508001D490120C1F8400E0020C1F8400E1A678D
:102518001B6F13F0010F13D1E36803F44072B2F597
:10252800407F1ED0154A936823F4F813936013492B
:102538000B6FE268C2F30B0213430B67002083E7BB
:10254800FEF736F905460D4B1B6F13F0020FE3D16A
:10255800FEF72EF9401B41F288339842F3D9032045
:1025680072E706498A6822F4F81223F0704323F4CC
:10257800407313438B60DAE700004742003802409B
:1025880000700040012801D000207047164B9B685E
:1025980013F4000303D0012B23D114487047124BC6
:1025A8005B6813F4800F14D00F4B5A6802F03F0297
:1025B8000F4BB3FBF2F30C4AD2F88400C0F3881037
:1025C80003FB00F0D2F88430C3F30273B0FBF3F0DE
:1025D8007047054B5A6802F03F02064BB3FBF2F313
:1025E800E9E70020704700BF003802400080BB00C8
:1025F80000127A000024F40000285AD010B50446CE
:10260800436A33B94368B3F5827F05D00023C361B9
:1026180002E00023036143610023A36294F8513070
:10262800002B40D0022384F851302268136823F02D
:1026380040031360636803F48273A26802F40442DF
:102648001343E26802F400621343226902F00202B3
:102658001343626902F001021343A26902F4007293
:102668001343E26902F038021343226A02F080023F
:102678001343A26A02F40052216813430B60638B70
:1026880003F00403626A02F01002216813434B60EE
:102698002268D36923F40063D361002060650123B5
:1026A80084F8513010BD84F850302046FDF7E0FF23
:1026B800B8E701207047000082B000230193019B16
:1026C80001330193019A0F4B9A4215D80369002BE5
:1026D800F5DA00230193036943F001030361019BC9
:1026E80001330193019A074B9A4208D8036913F002
:1026F800010FF4D1002000E0032002B0704703204E
:10270800FBE700BF400D030084B010B5044603A8E2
:1027180080E80E00089B012B1FD1A36B23F48033A4
:10272800A363E36823F4840323F04003E360E368CE
:1027380023F44013E3600F9B012B09D02046FFF7D9
:10274800BBFF069B012B1BD0BDE8104004B07047AF
:10275800E36843F48013E360F0E7E36843F0400381
:10276800E3602046FFF7A8FF0C9B23B9A36B43F453
:102778008033A363E5E7A36B23F48033A363E0E727
:10278800A36843F00603A360A36843F02003A36093
:10279800DAE7836843F001038360002070478368A9
:1027A80023F00103836000207047000082B00023FB
:1027B8000193019B01330193019A0F4B9A4215D85B
:1027C8000369002BF5DA00230193890141F0200108
:1027D8000161019B01330193019A074B9A4208D882
:1027E800036913F0200FF4D1002000E0032002B0A9
:1027F80070470320FBE700BF400D030082B00023B1
:102808000193019B01330193019A0E4B9A4213D80D
:102818000369002BF5DA0023019310230361019B60
:1028280001330193019A074B9A4208D8036913F0C0
:10283800100FF4D1002000E0032002B070470320FD
:10284800FBE700BF400D030010B59DF8084084B9B0
:1028580003334FEA930E4FF0000C08E000EB02330D
:1028680003F5805351F8044B1C600CF1010CF4453E
:10287800F4D3002010BD10B5844608464FEA920EE6
:1028880002F00302002305E00CF58051096840F8C6
:10289800041B01337345F7D37AB10CF5805CDCF87F
:1028A80000400021CBB2DB0024FA03F300F8013B1F
:1028B8000131013A92B2002AF4D110BD426980690F
:1028C80010407047406900F00100704738B5054670
:1028D800C36823F0C043C360012913D019BBC36880
:1028E80043F08043C36000240120FDF767FF0134F3
:1028F8002846FFF7E7FF08B1312CF5D9322C14D060
:10290800002038BDC36843F00053C3600024012091
:10291800FDF754FF01342846FFF7D4FF0128EDD016
:10292800312CF4D9EAE70120EBE70120E9E70000C0
:1029380084B038B5044605A880E80E000023C4F822
:10294800003EA36B43F40013A363A36B23F400239B
:10295800A363A36B23F48023A363E36B13F4807F47
:1029680010D0079B012B06D0D4F8003423F00403C1
:10297800C4F800340CE0D4F8003443F00403C4F87D
:10298800003405E0D4F8003423F00403C4F800341C
:1029980010212046FFF70AFF054600B10125204611
:1029A800FFF72CFF00B10125002209E004EB4213D8
:1029B8004FF0FF31C3F808150021C3F80C15013298
:1029C800069B9342F2D80023A3614FF0FF33636163
:1029D800E36B13F4807F17D04FF40073636203F145
:1029E8008073A3620D4BC4F80031089B1BB9A3691F
:1029F80043F01003A361A269094B1343A36128465E
:102A0800BDE8384004B070478023636203F5C00313
:102A1800A362044BC4F80031E7E700BF0003E000FD
:102A2800080020A3E000400000F5806CD0F80034D6
:102A380023F00303C0F80034D0F8003401F0030297
:102A48001343C0F80034012903D0022906D000201E
:102A580070474BF68033CCF80430F8E741F27073D6
:102A6800CCF80430F3E730B583B00446002501956F
:102A7800D0F840340193019B23F02E030193019B6E
:102A880043F48073C0F840346420FDF797FE019B3F
:102A980023F48073C4F840340A20FDF78FFE2846DB
:102AA80003B030BD82B000230193D0F840340193C5
:102AB800019B23F02E030193019B13F4805F01D146
:102AC80001290CD0019B13F4805F05D021B9019B2B
:102AD80023F48053C0F84034002002B07047019BB3
:102AE80043F48053C0F84034ECE782B000230193EC
:102AF800D0F8403401930198C0F3414002B07047C8
:102B080000F58060806880B270472DE9F8439146EF
:102B18001C469DF8245000EB411606F5A0634FF0C3
:102B2800FF329A60032D75D8DFE805F002660218B7
:102B380040F29D42DA6019F0800F09D1C26B12F49D
:102B4800807F69D0DA6842F06002DA6000270CE022
:102B5800DA6842F48072DA60002706E040F29D628B
:102B6800DA6019F0800F41D10027DA6842F00202DA
:102B7800DA60D0F8183401F00F0101228A401343BB
:102B8800C0F81834836943F00073836119F0800F2B
:102B980044D14FF00008FFF7A8FF9DF82030022B22
:102BA8003FD00022A30503F0FE534FEAC92909F4D8
:102BB800F04943EA0903A90401F440210B43BDF895
:102BC8002810C1F30A010B4343EA08031343C6F86C
:102BD8000035032D01D0012D05D1D6F8003543F07D
:102BE8000053C6F800353846BDE8F883DA6842F481
:102BF8008072DA600027B8E740F22522DA6019F01F
:102C0800800F01D10027B0E7DA6842F4C072DA60B9
:102C18000027AAE70127A8E70027A6E74FF40048FE
:102C2800B9E7022802D04FF40032BBE70022B9E727
:102C380000F58060406980B2704710B483B000230B
:102C4800019300EB411101F5A06CD1F80035C3F3F5
:102C58008143D1F80025846814F0200F02D0D20FE8
:102C6800002A51D023B3022B22D0D1F8003543F0EB
:102C78008043C1F80035D0F8103413F47F0F48D1E1
:102C8800D1F8003523F00043C1F80035D1F80035FC
:102C980043F00043C1F80035019B01330193019BC8
:102CA800B3F57A7F30D8DCF80030002BF4DB2BE06A
:102CB800D1F8003543F08043C1F80035836813F03C
:102CC800200F21D1C36A13F47F0F17D1D1F8003533
:102CD80023F00043C1F80035D1F8003543F0004334
:102CE800C1F80035019B01330193019BB3F57A7F4D
:102CF8000AD8DCF80030002BF4DB05E0D1F8003509
:102D080043F00043C1F80035002003B05DF8044BE0
:102D18007047D1F8003543F00043C1F80035F3E7B8
:102D280000EB4110064AC0F81025D0F8003523F012
:102D3800804343F00043C0F800350020704700BFCF
:102D48000000088030B585B04B78C46B14F4807FE0
:102D580007D00C792CB9012A16D012B94C79012C5C
:102D68001FD04C690CB30D8904EB050C0CF1FF3C2A
:102D7800BCFBF5FC1FFA8CFCBCF5807F17D92D0233
:102D88000D614FF4807C12E0CC790CB1022CE4D1B7
:102D980000EB4314D4F80C5525F07005C4F80C5515
:102DA800DBE74978FFF7BCFF6FE04FF0010CCD7807
:102DB800002D51D00C8904FB0CF40C610C69C4F390
:102DC8001204394D05EACC4C44EA0C0491F80AC0C7
:102DD8004FEA4C7C0CF0C04C00EB431344EA0C0463
:102DE800C3F8104512B1CC68C3F8144500F58065E6
:102DF800AC6814F0010F0CBF4FF0010C4FF0000C41
:102E0800D3F8004524F00054C3F80045D3F8004532
:102E180044EA4C74C3F80045D3F800450394039C76
:102E280024F080440394CC78C4B1039C44F4004457
:102E38000394039C44F000440394039CC3F80045A6
:102E48001ABBCB780BBB4B69FBB1CA79032A15D8DF
:102E5800DFE802F0091E091E0C61AFE7039C24F4A9
:102E680000440394E5E70333C26A92B2C3F38F03C5
:102E78009A4203D2836943F02003836100230093BD
:102E88008B8A4A78C968FFF7DFFC002005B030BD9F
:102E980003332A6992B2C3F38F039A42EED283694D
:102EA80043F080638361E9E70000F81F30B583B021
:102EB800044600230193FFF772FC10212046FFF718
:102EC80075FC054600B101252046FFF797FC00B1C7
:102ED800012500220AE004EB4211D1F8003523F065
:102EE800802343F08043C1F8003501320F2AF2D91C
:102EF800002100E001310F2916D804EB411000F53C
:102F0800A062D0F8003523F4004343F04043C0F8F2
:102F18000035019B01330193019BB3F57A7FE9D812
:102F28001368002BF5DBE5E74FF0FF33C4F81434E2
:102F380063612046FFF72DFC284603B030BD002012
:102F4800704708B52122027420224274002242826E
:102F580082820722C28200F0ABFF08BD08B5A12219
:102F68000274212242740022428282820722C28293
:102F780000F09EFF08BD38B50446D0F87C33D96907
:102F88004031FFF7EBFF054620B9D4F8D4330221CE
:102F980020469847284638BD38B50446D0F87C33D3
:102FA800DD69297879B9297BB1B9697BF1B9D4F898
:102FB8007C33D86928B101F091FAD4F87C33002227
:102FC800DA61002038BD01F0C0F82978204601F008
:102FD800D4F800232B70E6E7204601F0B6F8297BE9
:102FE800204601F0CAF800232B73DEE7204601F0E3
:102FF800ACF8697B204601F0C0F800236B73D6E774
:10300800F0B585B0044601230222114600F040FBCA
:10301800012800F2AE8006460146204600F02EFB4D
:103028000746002840F0A980D4F87C53502001F0CE
:103038004DFAE861D4F87C33DD69002D00F09F80FB
:1030480050220021284601F0F7FA1A2303FB064311
:1030580093F84E2393F94E33002B72DB69782046A0
:1030680001F078F8014628706A786B890293032387
:10307800019394F81D33009394F81C33204601F013
:1030880054F800222978204601F07EF900231A46D8
:103098000A21204600F0FCFA012872D81A2303FB03
:1030A800004393F84E2393F94E33002B51DBAA7358
:1030B8001A2303FB0043B3F850332B831A2303FB73
:1030C800004393F8562393F95633002B49DBAA7330
:1030D8001A2303FB0040B0F858332B83A97B204602
:1030E80001F038F86873E97B204601F033F828735B
:1030F800AA7B697B2B8B02930226019694F81D33D9
:10310800009394F81C33204601F00FF8EA7B297BE2
:103118006B8B0293019694F81D33009394F81C333B
:10312800204601F002F8002685F84C603246697B9B
:10313800204601F029F93246297B204601F024F97E
:1031480018E06A701A2303FB0646B6F850336B8101
:1031580084E7EA731A2303FB0043B3F850336B8305
:10316800ACE7EA731A2303FB0043B3F858336B83C5
:10317800B4E70227384605B0F0BD0227FAE7022770
:10318800F8E70227F6E7704730B583B00546D0F870
:103198007C33DC6994F84D30012B0CD0022B18D10C
:1031A800617B01F0DDF801281ED0022811D101232E
:1031B80084F84D300DE0606A228B90420BD9637B16
:1031C800E16901200090284600F076FF022384F888
:1031D8004D3003B030BD637BE1690122009282B2B9
:1031E800284600F069FFF1E7636A228B93420AD907
:1031F8009B1A6362E3691344E361636A33B1012391
:1032080084F84D30E5E700236362F6E7002384F88D
:103218004D302846FFF7B7FFDBE7704738B504465F
:10322800D0F87C33DD6995F84E30032B19D0042B88
:103238001FD1297B01F094F801281AD1297B204657
:1032480001F088F8AB6A834214D06A8B824211D2AB
:103258001B1AAB622B6A03442B62032385F84E309A
:1032680007E02B7B6A8B296A00F03CFF042385F872
:103278004E3038BD002385F84E302046FFF7CDFF8D
:10328800F7E7704770B50446D0F87C33DE6996F8E6
:103298004C50042D04D8DFE805F03B0513353D00FC
:1032A800012535E0B16CFFF74CFE18B9022386F80A
:1032B8004C302DE0012836D0042386F84C3027E026
:1032C80006F14001FFF74AFE0546A0B9002386F83B
:1032D8004C30736CB26C51684B4033F07F4324D14F
:1032E800316C1368994201D0012511E02046FFF79F
:1032F800C8FF01250CE001280AD0042386F84C30C9
:10330800012505E0FFF740FF2046FFF787FF01256D
:10331800284670BD002100F086FE40B9002386F8DB
:103328004C300125F4E70546F2E70125F0E70125D1
:10333800EEE78446002306E003F1E0020CEB82028C
:103348000021516001330F2BF6D9002305E00CEB67
:103358000302002182F81C110133B3F5007FF6D374
:1033680000208CF800008CF8010001238CF8023052
:10337800CCF8C4038CF8183040228CF806208CF85E
:1033880019008CF81C038CF81D338CF81F038CF87B
:103398001E03704708B50378DBB20B2B00D008BDBD
:1033A800D0F87C33002BFAD09B699847F7E770B5C3
:1033B80084B004464578072D00F22C81DFE815F02B
:1033C8000800480069009A00BF00E500FE001701E8
:1033D800082100F0AEFD18B1032821D0012509E12C
:1033E80094F82D33A3710125657002930026019688
:1033F80094F81D33009394F81C33802221792046D9
:1034080000F093FEA3790293019694F81D3300937C
:1034180094F81C3332466179204600F086FEE9E0D4
:1034280094F81E330133DBB284F81E33032B03D91F
:103438000D2323700125DDE06179204600F09DFE13
:103448002179204600F099FE002323700125D1E060
:10345800122100F06EFD10B902236370CAE0032840
:1034680040F0C88094F81E330133DBB284F81E3371
:10347800032B02D90D232370BCE06179204600F0AC
:103488007CFE2179204600F078FE002363702370CB
:10349800B0E0012100F094FD18B1032824D00125E3
:1034A800A8E0022000F085FF012584F81C530323BF
:1034B8006370A37902930026019694F81D33009354
:1034C8002B4680222179204600F02FFEA379029313
:1034D800019694F81D33009394F81C3332466179B1
:1034E800204600F022FE85E00D2323700023637040
:1034F80001257FE0092100F035FD18B90423637028
:10350800012577E0032801D0012573E094F81E33E4
:103518000133DBB284F81E33032B03D90D23237048
:10352800012567E06179204600F027FE21792046D1
:1035380000F023FE00236370237001255AE0B0F8E1
:103548003A1300F00FFD18B905236370012551E007
:10355800032801D001254DE094F81E330133DBB276
:1035680084F81E33032B03D90D232370012541E072
:103578006179204600F001FE2179204600F0FDFD2A
:10358800002363702370012534E090F8341319B9CF
:103598000623437001252DE0FF2300F58E7200F00D
:1035A800F7FC18B906236370012523E0032801D02E
:1035B80001251FE00623637001251BE090F83513F1
:1035C80019B907234370012514E0FF2300F58E7213
:1035D80000F0DEFC18B90723637001250AE0032810
:1035E80001D0012506E007236370012502E090F869
:1035F800365315B9284604B070BDFF2300F58E7206
:10360800294600F0C5FC05460028F3D0032803D05E
:103618000125EFE70125EDE70025EBE7D8B170B507
:103628000E46044680F8CC230025C0F87C53C0F829
:103638008053FFF77EFE84F8235384F8205384F8E0
:10364800215384F822530EB1C4F8D463204600F005
:1036580047FE002070BD022070470A4651B1D0F8DD
:1036680080334BB9591CC0F88013DE3340F823204F
:1036780000207047022070470220704790F83C33C2
:103688008B4203D980F8241300207047022070472A
:1036980010B5044600200BE04FF01A0C0CFB0E4E40
:1036A8009EF849C39C451CD0FF2B1AD00130C0B2EC
:1036B800012815D886464FF01A0C0CFB004C9CF8D4
:1036C80047C38C4501D0FF29F0D14FF01A0C0CFBF1
:1036D8000E4C9CF848C39445DED0FF2AE6D1DBE7C0
:1036E800FF2010BD10B5044600F071FE01212046F0
:1036F80000F03CFE002010BD30B587B00446022320
:103708008DF8173090F82133DBB2012B11D02378D4
:10371800DBB20B2B7BD8DFE813F00F00210045004C
:1037280011017A007D00EE0092009C00A600C20004
:10373800080103230370EAE794F82033002B66D0CE
:1037480001232370C82000F034FE204600F04FFE0D
:10375800002384F81C33C4F8C83358E094F82333A2
:10376800012B0FD0D4F8C833B3F57A7F13D994F866
:103778001F330133DBB284F81F33032B08D90D2321
:10378800237044E0002384F81F33022323703EE0B3
:10379800002323703BE00A33C4F8C8330A2000F042
:1037A80008FE34E0D4F8D43313B1042120469847F6
:1037B800642000F0FEFD204600F0BCFD84F81D03E7
:1037C800052323700021204600F0C4FC607180218D
:1037D800204600F0BFFC01462071A3790293002522
:1037E800019594F81D33009394F81C3380222046E9
:1037F80000F09BFCA3790293019594F81D33009384
:1038080094F81C332A466179204600F08EFC00208B
:1038180007B030BD2046FFF7CAFD8DF817009DF8A8
:103828001730002BF3D184F8243394F83733012B65
:1038380002D007232370EAE708232370E7E7D4F8C8
:10384800D433002BE3D00121204698470823237066
:10385800DDE794F83D13204600F0C3FB0028D6D1DD
:1038680009232370D3E794F83F3313F0200F02D1D4
:103878000A232370CBE70121204600F0C3FB8DF813
:1038880017009DF8173013B90A232370BFE79DF876
:103898001730DBB2032BBAD10A232370B7E7D4F869
:1038A8008033002BB3D00023C4F87C3373B1D4F831
:1038B8007C33EBB19B6820469847B0B90623237048
:1038C800D4F8D433032120469847A0E703F1DE0259
:1038D80054F82220107994F84713884202D0013313
:1038E800DBB2E3E7C4F87C23E1E70D2323708EE71E
:1038F8000D2323708BE7D4F87C339BB11B692046DA
:1039080098478DF817009DF8173013B90B232370CB
:103918007DE79DF81730DBB2022B7FF478AF0D23DB
:10392800237074E70D23237071E7D4F87C33002BE0
:103938003FF46DAF5B692046984768E7002384F839
:1039480021332046FFF7F5FCD4F87C332BB1DB6834
:10395800204698470023C4F87C33D4F8D43313B1F5
:1039680005212046984794F82233DBB2012B03D077
:10397800204600F02CFD4AE7002384F82233204635
:10398800FFF7B0FE43E7C0F8C413704708B5D0F896
:10399800C4230132C0F8C423FFF7FCFC08BD01238F
:1039A80080F823337047002380F823337047034699
:1039B800012280F82023002083F8210383F82203C2
:1039C800704738B50446012380F82133002580F874
:1039D800205380F8235300F002FD2179204600F09F
:1039E800CCFB6179204600F0C8FB284638BD0000B2
:1039F80010B40B7803704B7843708B7891F803C040
:103A080043EA0C2343800B7903714B7943718B791B
:103A18008371CB79C371202B0AD8082B0AD3083BB2
:103A2800DBB2134C24FA03F313F0010F04D101E0C5
:103A3800402B01D04023C371082A16D90B7A4A7A41
:103A480043EA022303818B7ACA7A43EA0223438139
:103A58000B7B4A7B43EA022383818B7B8373CB7B7B
:103A6800C3730B7C03744B7C43745DF8044B704741
:103A7800010100010B7803704B7843708B788370D9
:103A8800CB78C3700B7903714B7943718B79837150
:103A9800CB79C3710B7A0372704710B586461378D9
:103AA8000B7053784B7093788B7092F803C081F841
:103AB80003C01379507943EA00238B8094798C7181
:103AC80093B103F478438B801079527940EA02224B
:103AD80012F4C06F05D1C2F30A0213438B80002091
:103AE80003E04FF40072F8E703209EF81D3373B922
:103AF8000CF0030CBCF1010F03D0BCF1030F00D094
:103B080010BD013CE4B20F2CFAD90320F8E70CF001
:103B1800030CBCF1010F06D0BCF1030FF0D1002C4F
:103B2800EED16046ECE7013CE4B20F2CE8D9032063
:103B3800E6E74378032B00D070470378023B9A42AC
:103B480028BF1A4692B2002307E000EB030C9CF84A
:103B580002C001F801CB02339BB29342F5D3002394
:103B68000B70E9E730B583B00446057E6B1E0A2B5F
:103B780000F2DC80DFE803F00610354154617C88F0
:103B88009BA8BF00427900F1100100F05EFA022301
:103B98002376284603B030BD417900F0E1FB0546A5
:103BA800012805D0042818D0022816D00125F0E7EE
:103BB800237CE28A42B113F0800F02D105232376D9
:103BC800E7E703232376E4E713F0800F02D1072306
:103BD8002376DEE709232376DBE70B23237601250B
:103BE800D7E7D0F8C433C38103798289816800F0AC
:103BF80053FA042323760125CBE7017900F0B0FBC3
:103C0800012806D0052800F09380042804D0012557
:103C1800BFE709232376F8E70B2323760125B8E7C6
:103C28000125009543798289816800F01FFAD4F84C
:103C3800C433E38106232376ABE7417900F090FB98
:103C48000546431E042B75D8DFE803F0030A740EFB
:103C58000600072323769CE70C232376032598E7A1
:103C680005232376012594E70B232376022590E785
:103C780003790022114600F00FFAD4F8C433E38127
:103C880008232376012584E7017900F069FB0128E0
:103C980005D0042807D005284ED0012579E70D2343
:103CA8002376002575E70B232376012571E7012587
:103CB800009543790022114600F0D8F9D4F8C433AE
:103CC800E3810A23237664E7417900F049FB012860
:103CD80005D0022807D0042809D0012559E70D236B
:103CE8002376002555E709232376012551E70B2381
:103CF800237601254DE7437E0133DBB24376022B61
:103D080003D801250576857043E7D0F8D43306211A
:103D18009847002565766179204600F02EFA2179CA
:103D2800204600F02AFA2570022532E7012530E7FF
:103D380003252EE701252CE703252AE70B880278BF
:103D480013440B800378184470472DE9F04383B07F
:103D580005460C46097880F83813637880F83933BB
:103D6800A378E07843EA0023B3F5807F28BF4FF4B7
:103D78008073A5F83A33237985F83C33637985F85D
:103D88003D33A37985F83E33E37985F83F33237AC9
:103D980085F84033092902D0092385F83833092AE0
:103DA8007FD90923ADF8063000263746012E6FD893
:103DB800B5F83A23BDF806309A4269D90DF10601E3
:103DC8002046FFF7BBFF04464378042BEED1037867
:103DD800092B01D009230370B14605F54E701A234B
:103DE80006FB03F30833184421460230FFF742FE6E
:103DF8004FF0000824E01A2303FB095393F84833D3
:103E0800022B3AD11A2303FB095393F8493323B9F8
:103E18000378092B01D00923037005F54E7108F1C9
:103E280001081A2303FB09F303EBC80308331944F9
:103E3800224604312846FFF730FE07465FFA88F825
:103E48001A2303FB095393F8463343451BD9B5F8A6
:103E58003A13BDF80620914215D90DF10601204606
:103E6800FFF76CFF04464378052BE9D11A2303FBBF
:103E7800095393F84733012BBDD02378072BCCD0B7
:103E880007232370C9E7434510D80136F6B28DE7FA
:103E980095F83C33022B28BF0223B34202D90327EB
:103EA80000E00027384603B0BDE8F0830327F9E7B0
:103EB80010B504468078012803D0022808D00120D4
:103EC80005E0A160A281012323760223A37010BD1F
:103ED8002046FFF747FE30B1032804D00228F6D168
:103EE8000123A370F3E70123A37000232376EEE7F1
:103EF80008B58E4694461946BDF808208378012BEC
:103F080002D0FFF7D5FF08BD6EF07F0E80F810E0F5
:103F180006234374A0F812C00CF47F4CBCF5407F14
:103F280003D000238382C282EBE740F209438382F5
:103F3800F9E7F0B583B004460D4600F58E7600919A
:103F480033464FF480720021FFF7D2FF074610B1C5
:103F5800384603B0F0BD2A46314604F22630FFF752
:103F680047FDF5E770B582B004460D4600F11C0622
:103F7800009133464FF400720021FFF7B9FF08B1F2
:103F880002B070BD2A4631462046FFF7DEFEF7E74D
:103F9800F0B583B016461D4600F58E74009323468F
:103FA80041F440720021FFF7A3FF074610B13846DD
:103FB80003B0F0BD2A4631462046FFF7BAFDF6E7C2
:103FC80008B58378012B04D000221146FFF770FF53
:103FD80008BD002303740522427441828382C38290
:103FE800F2E708B58378012B04D000221146FFF7C9
:103FF8005FFF08BD00230374092242744182838253
:10400800C382F2E708B58378012B04D00022114659
:10401800FFF74EFF08BD0023037403224274418258
:104028008382C382F2E708B58378012B04D000228B
:104038001146FFF73DFF08BD0223037401234374B3
:10404800002343828182C382F1E710B584B00B4616
:1040580011460024039408220292019300942346F7
:10406800224600F0E7F9204604B010BD30B585B00F
:104078000C4619469DF8203090F81D5305B10023D1
:104088000393029201940123009300231A4600F03F
:10409800D1F9002005B030BD30B585B00D461946C0
:1040A800002403940292019501220092234600F015
:1040B800C1F9204605B030BD30B585B00C4619466B
:1040C8009DF8203090F81D5305B100230393029208
:1040D8000194012300930223002200F0ABF9002091
:1040E80005B030BD30B585B00D461946002403949F
:1040F8000292019501220092022300F09BF92046CA
:1041080005B030BD00230F2B0CD803F1E00200EB03
:104118008202526812F4004F02D00133DBB2F2E798
:10412800184670474FF6FF70704710B584B0BDF859
:10413800204002949DF81C4001949DF8184000947A
:1041480000F05DF9002004B010BD08B500F06AF970
:10415800002008BD38B504460D46FFF7D3FF4FF6DB
:10416800FF73984207D000F00F0345F40045E03391
:1041780004EB83046560C0B238BD0F2906D8E0316E
:1041880000EB81004368C3F30E03436000207047CF
:1041980004290CD0052902D0022904D07047064B07
:1041A80003221A707047044B02221A707047024BA0
:1041B80001221A70704700BF9001002008B5012243
:1041C8000B490C48FFF72AFA48B90B490948FFF789
:1041D80044FA38B90748FFF785FA30B908BDFCF743
:1041E800CDF8F2E7FCF7CAF8F4E7FCF7C7F8F5E70B
:1041F80099410008940100200C00002008B50248ED
:10420800FFF77AFA08BD00BF9401002070B588B0A6
:104218000023039304930593069307930368B3F16C
:10422800A04F01D008B070BD002501951A4C236B32
:1042380043F001032363236B03F001030193019B04
:104248004FF400730393154E03A93046FCF742FB65
:104258004FF4E053039302230493059506950A232C
:10426800079303A93046FCF735FB636B43F08003E3
:1042780063630295636C43F480436364636C03F483
:1042880080430293029B2A4629464320FCF7F0FA12
:104298004320FCF7FDFAC5E7003802400000024061
:1042A80008B5D0F80003FFF771FB08BD08B5D0F8D2
:1042B8000003FFF77CFB08BD08B5D0F80003FFF743
:1042C80080FB08BD704708B5D0F80003FFF767FB0F
:1042D80008BD08B5D0F80003FFF765FB08BD00006E
:1042E80090F8CC33012B01D00020704710B504465C
:1042F8000F48C0F80043C4F8D0034FF0A043036050
:10430800082383600123C3600023036102228261C2
:10431800C361FCF786FC40B90548FDF773F901460F
:104328002046FFF730FB002010BDFCF727F8F3E725
:104338006C05002008B5D0F8D003FDF768F901280E
:1043480004D0022804D020B1012002E0012000E0BE
:10435800022008BD08B5D0F8D003FDF74EF908BD16
:1043680008B5D0F8D003FDF742F908BD08B590F8B4
:10437800CC33012B04D0C820FCF720FA002008BD5C
:10438800084600F06DF8F6E7D0F8D0332C2000FB93
:10439800013090F83B0030B12C2000FB013181F84E
:1043A8005420002070472C2000FB013181F8552053
:1043B800F7E708B5FCF702FA08BD022805D8DFE8D8
:1043C80000F005040200012070470220704708B57C
:1043D800D0F8D003FDF7DFF8FFF7EFFF08BD08B509
:1043E800D0F8D003FDF7ECF8FFF7E7FF08BD08B5F4
:1043F800D0F8D003FDF7F6F8FFF7DFFF08BD10B5DA
:1044080084B0D0F8D003BDF8204002949DF81C4039
:1044180001949DF818400094FCF7AAFBFFF7CDFF24
:1044280004B010BD08B5D0F8D003FCF7E8FBFFF7DF
:10443800C4FF08BD10B584B0D0F8D0039DF824405F
:104448000394BDF820400294079C01949DF81840FD
:104458000094FCF738FCFFF7B0FF04B010BD000073
:1044680008B5024600B1012201210248FCF728FBE9
:1044780008BD00BF00080240DFF834D00D480E49DF
:104488000E4A002302E0D458C4500433C4188C42A6
:10449800F9D30B4A0B4C002301E013600432A2420B
:1044A800FBD3FCF72FF900F0DFF8FCF717F870479B
:1044B80000000220000000207C000020504A000874
:1044C8007C000020BC090020FEE70000024B0146EA
:1044D800186800F02DB800BF2C000020024B0146E0
:1044E800186800F0E7B800BF2C00002070B50F4E28
:1044F8000C463168054611B900F0A6F8306021462F
:10450800284600F0A1F8431C03D14FF0FF342046A1
:1045180070BDC41C24F00304A042F8D0211A284618
:1045280000F092F80130F2D1EFE700BF70080020E8
:104538002DE9F041CD1C25F0030508350C2D38BFB9
:104548000C25002D064601DBA94204D90C23336053
:104558000020BDE8F081314F00F062F83B681C464E
:1045680044BB29463046FFF7C1FF431C044650D1DF
:104578003C682146002941D1002C44D023683046AC
:1045880004EB030800F060F880453CD121686D1AFF
:1045980029463046FFF7AAFF013034D023682B4460
:1045A80023603B68002B36D05A68A24229D10022EA
:1045B8005A600EE02268521B1DD40B2A16D96119C5
:1045C800A342256018BF5960636808BF396062510B
:1045D8004B60304600F02AF804F10B00231D20F050
:1045E8000700C21AB5D01B1AA350B2E7A3426268EB
:1045F800DED13A60EDE723466468B1E70C464968C6
:10460800B8E71346CEE70C233360304600F00EF8C7
:104618009EE70560DDE75B60FFDE00BF74080020F1
:10462800014800F045B800BFB4090020014800F077
:1046380040B800BFB409002002440346934200D1A9
:10464800704703F8011BF9E738B5064D0023044607
:1046580008462B6000F078F8431C02D12B6803B1A0
:10466800236038BDB009002070B50D4D0D4C641B9A
:10467800A4100026A64209D10B4D0C4C00F0C2F93B
:10468800641BA4100026A64205D170BD55F8043B52
:1046980098470136EEE755F8043B98470136F2E7AC
:1046A800484A0008484A0008484A00084C4A000896
:1046B8007047704738B50546002941D051F8043C89
:1046C8000C1F002BB8BFE418FFF7AAFF1D4A136898
:1046D80033B9636014602846BDE83840FFF7A6BFC9
:1046E800A34208D9206821188B4201BF19685B686A
:1046F80009182160EDE71A465B680BB1A342FAD9A5
:1047080011685018A0420BD1206801445018834208
:104718001160E0D118685B68536008441060DAE7FC
:1047280002D90C232B60D6E7206821188B4204BFDE
:1047380019685B68636004BF091821605460CAE7A0
:1047480038BD00BF74080020044A05491368002BCF
:1047580008BF0B461844106018467047B809002077
:10476800C00900202DE9F04786468C460846089E79
:10477800154674461946002B40F0C2808542B2FAAD
:1047880082F245D94AB1C2F1200300FA02FC2EFA9E
:1047980003F3954043EA0C0C94404FEA154EA8B237
:1047A800BCFBFEF8230C0EFB18CC08FB00F943EA0F
:1047B8000C43994528D9EB1808F1FF3704D29945DD
:1047C80002D9A8F102072B44A3EB0903A4B2B3FB57
:1047D800FEFC0EFB1C330CFB00F044EA0344A04231
:1047E80014D92C190CF1FF3304D2A04202D9ACF130
:1047F80002032C44241A43EA07401EB1D440002384
:1048080034607360BDE8F0874746DDE76346F1E74B
:1048180092BB431B01214FEA154EAFB2B3FBFEFC1E
:10482800200C0EFB1C330CFB07F840EA03439845A9
:1048380062D9EB180CF1FF3004D2984502D9ACF1DB
:1048480002002B44A3EB0803A4B2B3FBFEFC0EFB4F
:104858001C330CFB07F744EA0344A7424ED92C1932
:104868000CF1FF3304D2A74202D9ACF102032C4465
:10487800E41B43EA0040C0E7C2F1200320FA03F139
:10488800954090402EFA03F303434FEA154EAFB21A
:10489800B1FBFEFC0EFB1C10190C0CFB07F841EADF
:1048A8000041884504FA02F422D969180CF1FF3056
:1048B80004D2884502D9ACF102002944A1EB0801D1
:1048C8009BB2B1FBFEFC0EFB1C110CFB07F743EA85
:1048D80001439F420ED9EB180CF1FF3104D29F42DD
:1048E80002D9ACF102012B44DB1B41EA004192E7FB
:1048F8006046E3E76146F7E76046A3E76346B7E744
:10490800834206D916B9002108467BE7C6E900E0CC
:10491800F9E7B3FA83F78FB9834201D3724508D810
:10492800BEEB020460EB030301209C461EB9002184
:1049380068E73846FAE7C6E9004CF8E7C7F1200C03
:10494800BB4022FA0CF41C432EFA0CF120FA0CF3AB
:10495800B84001434FEA14490EFA07F5B3FBF9F8DA
:104968001FFA84FE09FB18300B0C08FB0EFA43EA09
:1049780000439A4502FA07F240D9E31808F1FF30DC
:1049880004D29A4502D9A8F102002344A3EB0A03F2
:1049980089B2B3FBF9F809FB183308FB0EFE41EAAC
:1049A80003418E452CD9611808F1FF3304D28E4596
:1049B80002D9A8F10203214443EA0040A0FB02986F
:1049C800A1EB0E014145CE46434602D306D14D45E3
:1049D80004D2B9EB020E68EB04030138002EA6D00E
:1049E800B5EB0E0261EB030101FA0CFC22FA07F3A6
:1049F8004CEA0303F940C6E9003198E74046C5E7A9
:104A08004346D9E7F8B500BFF8BC08BC9E467047D6
:0C4A1800F8B500BFF8BC08BC9E46704713
:104A24000000000001020304000000000000000078
:0C4A340001020304060708094344430084
:084A40002CFDFF7F01000000C6
:044A4800E101000880
:044A4C00BD010008A0
:104A50000024F40001000000100000003C4A00089F
:104A60000200000009300008A12F00087F2F000875
:104A70008D320008472F00080000000030000020A1
:104A80000000000078080020E0080020480900200D
:104A90000000000000000000000000000000000016
:104AA0000000000000000000000000000000000006
:104AB00000000000000000000000000000000000F6
:0C4AC000000000000000000000000000EA
:04000005080044812A
:00000001FF
