:020000040800F2
:1000000000000220F9490008B90C0008BB0C0008E8
:10001000BD0C0008BF0C0008C10C00080000000067
:10002000000000000000000000000000C30C0008F9
:10003000C50C000800000000C70C0008C90C00082F
:10004000494A0008494A0008494A0008494A000844
:10005000494A0008494A0008494A0008494A000834
:10006000494A0008494A0008494A0008494A000824
:10007000494A0008494A0008494A0008494A000814
:10008000494A0008494A0008494A0008494A000804
:10009000494A0008494A0008494A0008494A0008F4
:1000A000494A0008494A0008494A0008494A0008E4
:1000B000494A0008494A0008494A0008494A0008D4
:1000C000494A0008494A0008494A0008494A0008C4
:1000D000494A0008494A0008494A0008494A0008B4
:1000E000494A0008494A0008494A0008494A0008A4
:1000F000494A0008494A0008494A0008494A000894
:10010000494A0008494A0008494A0008494A000883
:10011000494A0008494A0008494A0008494A000873
:10012000494A0008494A0008494A0008494A000863
:10013000494A0008494A0008494A0008494A000853
:10014000494A0008494A0008494A0008D10C0008F9
:10015000494A0008494A0008494A0008494A000833
:10016000494A0008494A0008494A0008494A000823
:10017000494A0008494A0008494A000800000000AE
:08018000494A0008494A000841
:100188000348044B834202D0034B03B1184770471E
:10019800900000209000002000000000054806495B
:1001A8000B1AD90F01EBA301491002D0034B03B17D
:1001B80018477047900000209000002000000000C1
:1001C80010B5064C237843B9FFF7DAFF044B13B197
:1001D8000448AFF300800123237010BD9000002075
:1001E800000000004C4A000808B5044B1BB1044944
:1001F8000448AFF30080BDE80840CFE700000000E6
:10020800940000204C4A000870B50D4E0D4D761B29
:10021800B61006D00024013455F8043B9847A6428E
:10022800F9D1094E094D761B04F00CFCB61006D026
:100238000024013455F8043B9847A642F9D170BD13
:10024800884A0008884A00088C4A0008884A00083A
:10025800024B0146186800F0B1B800BF000000204A
:10026800024B0146186800F053B800BF0000002098
:10027800F0B4860746D0541E002A3CD0CAB20346C2
:1002880002E014F1FF3436D303F8012B9D07F8D1AF
:10029800032C29D9CDB245EA05250F2C45EA054599
:1002A80033D9A4F11006360903F1200707EB061726
:1002B80003F1100242E9045542E902551032BA42EC
:1002C800F8D1721C14F00C0F03EB021204F00F06A5
:1002D80013D0331F23F003030433134442F8045BA1
:1002E8009342FBD106F003042CB1C9B21C4403F8B5
:1002F800011B9C42FBD1F0BC704734461346002CCE
:10030800F3D1F8E714460346C2E71A462646E0E763
:1003180000293CD038B551F8043C0C1F002BB8BF5D
:10032800E418054600F0C0F8234B1A682AB1A24227
:100338000DD921686018824223D0626028461C606B
:10034800BDE8384000F0B2B8A34203D81A46536853
:10035800002BF9D111685018A04219D024D821686F
:100368006018834206D0636054602846BDE8384070
:1003780000F09CB8D3E90003014463602160546035
:10038800F3E7D2E90002014462602160D6E77047D2
:1003980020680144501883421160E6D1D3E9000374
:1003A800014453601160E0E70C232B602846BDE848
:1003B800384000F07BB800BFAC000020F8B5CD1C79
:1003C80025F0030508350C2D38BF0C25002D0646F1
:1003D80033DBA94231D82A4F00F066F83A6852B1A7
:1003E80013685B1B04D43FE023685B1B29D52246B6
:1003F8005468002CF8D1796800293BD0294630464A
:1004080000F040F8431C28D0C41C24F00304A04288
:1004180005D0211A304600F035F801301DD025608E
:10042800304600F043F804F10B0020F00700231DCC
:10043800C21A01D01B1AA350F8BD0C22326000204A
:10044800F8BD0B2B05D8A242636811D05360E7E7CB
:10045800144623601C442560E2E70C2330463360D1
:1004680000F024F80020F8BD0B2BF1D8536814468F
:100478003B60D5E7304600F005F87860BEE700BF7E
:10048800AC00002038B5074C002305460846236019
:1004980000F00EF8431C00D038BD2368002BFBD0B9
:1004A8002B6038BD90080020704700BF704700BF20
:1004B800044A05491368002B08BF0B46184410600E
:1004C80018467047B40000209808002053B94AB96C
:1004D800002908BF00281CBF4FF0FF314FF0FF3044
:1004E80000F06EB9ADF1080C6DE904CE00F006F825
:1004F800DDF804E0DDE9022304B070472DE9F04798
:10050800089D04468C46002B40F083808A4217469B
:1005180047D9B2FA82F242B1C2F1200024FA00F0BF
:100528009140974040EA010C94404FEA1748230C49
:10053800BCFBF8F61FFA87FE08FB16C143EA014325
:1005480006FB0EF1994209D9FB1806F1FF3080F03D
:100558001981994240F21681023E3B445B1AA4B2CB
:10056800B3FBF8F008FB103344EA034400FB0EFE2B
:10057800A64509D93C1900F1FF3380F00581A6454D
:1005880040F2028102383C4440EA0640A4EB0E04E3
:1005980000261DB1D4400023C5E900433146BDE81B
:1005A800F08702B9FFDEB2FA82F2002A50D1CB1BE3
:1005B8004FEA174E1FFA87F80126B3FBFEFC210C01
:1005C8000EFB1C3341EA034108FB0CF38B4207D9AD
:1005D80079180CF1FF3002D28B4200F2E980844690
:1005E800C91AA3B2B1FBFEF00EFB101143EA014495
:1005F80008FB00F8A04507D93C1900F1FF3302D2E7
:10060800A04500F2D9801846A4EB080440EA0C4043
:10061800BFE78B4209D9002D00F0B1800026C5E95B
:10062800000130463146BDE8F087B3FA83F6002E64
:100638004AD18B4202D3824200F2B880841A61EB1D
:10064800030101208C46002DA8D0C5E9004CA5E780
:10065800C2F1200320FA03F6974001FA02F04FEAAC
:10066800174ED9403043030CB1FBFEF61FFA87F84A
:100678000EFB161143EA014306FB08F1994204FAFE
:1006880002F409D9FB1806F1FF3C80F08D809942ED
:1006980040F28A80023E3B445B1A81B2B3FBFEF013
:1006A8000EFB103341EA034100FB08F38B4207D9E4
:1006B800791800F1FF3C73D28B4271D90238394462
:1006C800CB1A40EA064678E7C6F1200C03FA06F48E
:1006D80022FA0CF31C4320FA0CF701FA06F34FEA4E
:1006E800144E21FA0CF11F433B0CB1FBFEF91FFA23
:1006F80084F80EFB191143EA014109FB08FA8A45FF
:1007080002FA06F200FA06F308D9611809F1FF3077
:1007180048D28A4546D9A9F102092144A1EB0A0128
:10072800BFB2B1FBFEF00EFB101147EA014700FB18
:1007380008F8B84507D9E71900F1FF312ED2B845B6
:100748002CD90238274440EA0940A7EB0807A0FB48
:1007580002894F45C64649461AD317D05DB1B3EB57
:100768000E0267EB010707FA0CFCF2404CEA0202A2
:10077800F740C5E9002700263146BDE8F0872E4638
:1007880028460BE70646E9E61846FDE64345E5D266
:10079800B8EB020E69EB04010138DFE70846D2E73F
:1007A80060468DE78146B9E7664675E730464AE711
:1007B800ACF1020C394413E702383C4424E700BF8B
:1007C800704700BF2DE9F04F8DB0002407940894BE
:1007D80009940A940B940194564B1A6B42F0100238
:1007E8001A631A6B02F010020192019A02941A6BB2
:1007F80042F004021A631A6B02F004020292029A8F
:1008080003941A6B42F080021A631A6B02F080029A
:100818000392039A04941A6B42F001021A631A6B4A
:1008280002F001020492049A05941A6B42F0020243
:100838001A631A6B02F002020592059A06941A6B63
:1008480042F008021A631B6B03F008030693069B29
:10085800394E22460821304600F002FCDFF8E090CD
:1008680001221146484600F0FBFBDFF8D8802246FB
:100878004FF21001404600F0F3FB082707970125C7
:10088800089509940A9407A9304600F0FFFA0795DD
:10089800089509940A9407A9484600F0F7FA0797BB
:1008A8000227089709940A944FF0050ACDF82CA05E
:1008B80007A9484600F0EAFA07954FF49019CDF8D1
:1008C8002090099407A91D4800F0E0FA0423079333
:1008D80008940994DFF870B007A9584600F0D6FAD2
:1008E8004FF480630793089709940A94CDF82CA0D5
:1008F80007A9584600F0CAFA4FF210030793089563
:1009080009940A9407A9404600F0C0FA20230793E7
:100918000894099407A9404600F0B8FA0797CDF85B
:100928002090099407A9304600F0B0FA0DB0BDE850
:10093800F08F00BF00380240001002400000024063
:1009480000080240000C02400004024072B6FEE7B4
:1009580008B50A480A4B03600A4B436000238360CA
:10096800C3604FF48042026143618361C3610362E3
:1009780001F01EF900B908BDFFF7E8FFBC00002030
:1009880000540040A086010008B50A480A4B0360DD
:100998004FF40072426000238360C3600261074A1B
:1009A80042618361C361036201F0E0F900B908BDE7
:1009B800FFF7CCFF68010020003C004000770100F1
:1009C80008B50D480D4B03604FF482734360002354
:1009D8008360C360036143614FF400728261C36145
:1009E8000362436283620A23C36202F0C7F800B954
:1009F80008BDFFF7ABFF00BF100100200030014029
:100A080000B595B03022002108A8FFF731FC00237B
:100A1800039304930593069307930193214A116C5A
:100A280041F080511164126C02F080520192019AD7
:100A380002931D4B1A6842F480421A601B6803F443
:100A480080430293029B012308934FF48033099358
:100A580002230E934FF480020F92082210924FF453
:100A6800A872119212930723139308A801F07AFC35
:100A780098B90F23039302230493002305934FF49B
:100A8800A05306934FF480530793052103A801F060
:100A9800CBFE20B915B05DF804FBFFF757FFFFF751
:100AA80055FF00BF003802400070004008B500F054
:100AB80043F9FFF7A5FFFFF785FEFFF749FFFFF7AB
:100AC80063FFFFF77DFF03F033FE03F051FEFCE701
:100AD80000B583B0002100910C4B5A6C42F480425F
:100AE8005A645A6C02F480420092009A01911A6C7E
:100AF80042F080521A641B6C03F080530193019BEF
:100B0800072000F059F903B05DF804FB00380240F3
:100B180030B589B000230393049305930693079394
:100B28000268154B9A4201D009B030BD00250195E5
:100B3800124C236B43F002032363236B03F002037D
:100B48000193019B4FF41073039312230493012321
:100B5800059306950423079303A9094800F096F91D
:100B68000295236C43F400132364236C03F40013ED
:100B78000293029BD8E700BF0054004000380240AF
:100B88000004024070B58CB00023079308930993C2
:100B98000A930B9306930268254B9A4201D00CB036
:100BA80070BD01230393C02304930223059303A874
:100BB80001F000FF002837D1002400941D4B1A6C67
:100BC80042F400421A641A6C02F400420092009A3D
:100BD80001941A6B42F001021A631A6B02F00102C7
:100BE8000192019A02941A6B42F004021A631B6B79
:100BF80003F004030293029B10230793022608962E
:100C080009940A9406250B9507A90B4800F03EF9AC
:100C18004FF4A4530793089609940A940B9507A9CF
:100C2800064800F033F9BAE7FFF790FEC4E700BFC3
:100C3800003C00400038024000000240000802402A
:100C480000B589B000230393049305930693079393
:100C58000268154B9A4202D009B05DF804FB0022E5
:100C6800019203F58433596C41F480515964596CED
:100C780001F48051019101990292196B41F001012F
:100C880019631B6B03F001030293029BE023039398
:100C980002230493059206920523079303A90348A8
:100CA80000F0F4F8D8E700BF00300140000002402F
:100CB800FEE7FEE7FEE7FEE7FEE77047704770478E
:100CC80008B500F053F808BD08B5024800F084FEE6
:100CD80008BD00BF8C050020034AD2F8883043F4D1
:100CE8007003C2F88830704700ED00E010B5044684
:100CF8000E4B18784FF47A73B3FBF0F30C4A106874
:100D0800B0FBF3F000F0ACF868B90F2C01D9012062
:100D18000AE0002221464FF0FF3000F05FF8054B53
:100D28001C60002000E0012010BD00BF680000200A
:100D3800640000206C00002008B50B4B1A6842F4D0
:100D480000721A601A6842F480621A601A6842F4E3
:100D580080721A60032000F02FF80020FFF7C6FF0A
:100D6800FFF7B6FE002008BD003C0240034A1168A8
:100D7800034B1B780B441360704700BFB001002081
:100D880068000020014B1868704700BFB0010020C0
:100D980038B50446FFF7F6FF0546B4F1FF3F02D029
:100DA800044B1B781C44FFF7EDFF401BA042FAD30D
:100DB80038BD00BF68000020074AD36823F4E06309
:100DC8001B041B0C000200F4E060034343F0BF6304
:100DD80043F40033D360704700ED00E030B4174BA4
:100DE800DB68C3F30223C3F10704042C28BF0424DF
:100DF8001D1D062D18D9033B4FF0FF3505FA04F4E5
:100E080021EA0401994005FA03F322EA030319438E
:100E180000280BDB0901C9B200F1604000F5614010
:100E280080F8001330BC70470023E5E700F00F009E
:100E38000901C9B2024B1954F4E700BF00ED00E004
:100E480014ED00E0002807DB00F01F024009012331
:100E58009340024A42F82030704700BF00E100E0AA
:100E68000138B0F1807F0AD2064B5860064AF0215B
:100E780082F823100020986007221A60704701202A
:100E8800704700BF10E000E000ED00E000230F2BEA
:100E980000F2DD80F0B482B05DE086685F00032474
:100EA800BC4026EA0406CC68BC40344384604668EB
:100EB80026EA02064C68C4F300129A4032434260A4
:100EC80057E0DC08083450F8247003F00702960055
:100ED8000F22B24027EA02070A69B2403A4340F8B3
:100EE80024205AE0072200E00022B2403A430234AC
:100EF800574E46F82420574A9468EA4324EA0506E0
:100F08004F6817F4801F01D045EA0406514CA660CB
:100F1800E46802EA04064F6817F4001F01D045EAA6
:100F280004064C4CE660646802EA04064F6817F44D
:100F3800003F01D045EA0406464C6660246822401A
:100F48004E6816F4803F01D045EA0402414C226005
:100F580001330F2B78D801229A400C6804EA020565
:100F680032EA0404F4D14C6804F00304013C012C77
:100F780093D94A6802F00302032A09D0C4685E00C4
:100F88000322B24024EA02048A68B2402243C260C3
:100F98004A6802F00302022A93D004685E00032222
:100FA800B24024EA02044A6802F00302B240224333
:100FB80002604A6812F4403FCAD000220192264AD1
:100FC800546C44F480445464526C02F4804201929C
:100FD800019A9C08A61C1E4A52F8267003F00302C8
:100FE80096000F22B24027EA02071C4A90423FF4BB
:100FF8007BAF02F5806290421AD002F5806290427F
:1010080018D002F58062904216D002F580629042B4
:1010180014D002F58062904212D002F580629042AC
:1010280010D002F5806290423FF45CAF08225CE782
:1010380001225AE7022258E7032256E7042254E71E
:10104800052252E7062250E702B0F0BC704770470D
:1010580000380140003C01400038024000000240D6
:101068000AB181617047090481617047F8B5066863
:10107800346A04F00F07C4F34343C4F30A14022B81
:1010880000D0F8BD0546002CFBD02C2303FB07033A
:10109800596C0029F5D02C2303FB07031A6D224451
:1010A800DB6C9A4206D92C2000FB0755042385F8EF
:1010B8006030E6E72246304601F09CFE2C2303FB15
:1010C80007535A6C22445A641A6D22441A6506EB77
:1010D8004716D6F81025C2F3C942B3F84030A342E8
:1010E800CFD1002ACDD0D6F8003523F0804343F085
:1010F8000043C6F800352C2303FB075595F85430F8
:1011080083F0010385F85430BBE7F0B585B0044699
:101118009DF828509DF82C60BDF8307090F8F802C2
:10112800012837D0012084F8F8022C2000FB014068
:101138004FF0000C80F83DC080F83830A0F84070BF
:1011480080F8391080F83F6002F07F0C80F83AC0D0
:1011580012F0800F16D12C2000FB01404FF0000C3C
:1011680080F83BC02C2000FB014080F83C500297DF
:1011780001960095206801F08BFF002384F8F8326F
:1011880005B0F0BD2C2000FB01404FF0010C80F8A9
:101198003BC0E7E70220F3E790F8F832012B0BD0C9
:1011A80010B50446012380F8F832006802F009F807
:1011B800002084F8F80210BD02207047002845D0AE
:1011C800F0B58BB00646046890F8F932002B38D099
:1011D800032386F8F932E36B13F4807F01D10023EF
:1011E8003361306801F09DFD344654F810CB6D46EC
:1011F8000FCC0FC50FCC0FC594E8030085E803009A
:10120800371D97E80E00604601F040FD0121306867
:1012180001F01EFE344654F810CB6D460FCC0FC5B6
:101228000FCC0FC594E8030085E8030097E80E008B
:10123800604601F03FFE012386F8F93200200BB02A
:10124800F0BD80F8F83203F09BFAC1E7012070473F
:10125800F8B59DF81850BDF820602C2404FB010453
:1012680084F83B2084F83F307DB92C2404FB01042A
:10127800032784F842709DF8247084F83D70032B8E
:101288007FD8DFE803F0097828502C2404FB0104F8
:10129800022784F84270F2E7012D72D1002A70D13A
:1012A8002EB92C2303FB0103012283F855202C239C
:1012B80003FB010393F8553033B92C2303FB0103D7
:1012C800002283F842205CE02C2303FB0103022266
:1012D80083F8422055E092B92C2303FB010393F8CD
:1012E80055302BB92C2303FB010383F8422048E037
:1012F8002C2303FB0103022283F8422041E02C2324
:1013080003FB010393F8543033B92C2303FB010387
:10131800002283F8422034E02C2303FB010302223D
:1013280083F842202DE092B92C2303FB010393F8A4
:1013380055302BB92C2303FB010383F8422020E00E
:101348002C2303FB0103022283F8422019E02C23FB
:1013580003FB010393F8543033B92C2303FB010337
:10136800002283F842200CE02C2303FB0103022215
:1013780083F8422005E02C2303FB0103002283F8B5
:1013880042202C2303FB01F3C218079C5464D66443
:10139800002482F86040146582F8391082F86140B0
:1013A80003F13801027C0144006801F08DFFF8BDAB
:1013B80030B583B004460568D5F840340193D5F8B4
:1013C80040340093009B23F02E030093019B13F0FD
:1013D800020F07D0019B13F0010F25D1009B43F0AA
:1013E80002030093019B13F0080F10D0009B43F0F9
:1013F80008030093019B13F0040F2DD0A369022B5F
:1014080015D0E368012B22D0204603F018FA019B7F
:1014180013F0200F03D0009B43F020030093009BA0
:10142800C5F8403403B030BD03F0FCF9D6E7019BA2
:1014380003F4C023B3F5802F04D00121206801F004
:10144800B5FDE1E70221206801F0B0FDDCE74EF6CA
:101458006022C5F80424D7E7204603F0F6F9D6E75A
:10146800F8B504460E46076807EB411707F5A0656F
:10147800AB6813F0040F0AD1AB6813F4807F49D12D
:10148800AB6813F0200F52D02023AB600AE004238E
:10149800AB602C2303FB0103062283F8612000685C
:1014A80001F08FFEAB6813F4007F71D1AB6813F0C5
:1014B800010F00F09D80236943B12C2303FB0643F1
:1014C8009A6C2969C1F31201521A1A652C2303FB7D
:1014D8000643012283F861200021D965AA6093F8A8
:1014E8003F30002B5CD0022B5AD0032B01D0012BAC
:1014F8005CD1D7F8003543F00053C7F800352C23EA
:1015080003FB0643012283F860203146204603F09E
:1015180095F94BE04FF48073AB602C2303FB010378
:10152800072283F86120006801F04BFEBAE7AB6838
:1015380013F0080F13D1AB6813F4806F1BD1AB689D
:1015480013F0800FAED08023AB602C2303FB010384
:10155800062283F86120006801F033FEA2E7082321
:10156800AB602C2303FB0103052283F8612000688C
:1015780001F027FE96E74FF48063AB602C2303FB52
:101588000103082283F86120006801F01AFE89E748
:101598003146206801F015FE4FF40073AB60F8BDCA
:1015A8003146206801F00DFE1023AB602369012B42
:1015B80009D02C2000FB064494F8543083F0010332
:1015C80084F85430EBE72C2303FB06439A6CB3F8FA
:1015D8004030B2FBF3F313F0010FE0D02C2303FBF0
:1015E800064494F8543083F0010384F85430D6E765
:1015F800AB6813F0020F60D02C2303FB064393F86B
:101608006130012B13D0052B23D0062B28D0082BB3
:1016180026D0032B42D0072B0FD12C2303FB0643E4
:10162800DA6D0132DA65042283F8602005E02C23A4
:1016380003FB0643012283F860200223AB602C23BE
:1016480003FB064393F860203146204603F0F6F882
:10165800A5E72C2303FB0643052283F86020ECE76B
:101668002C2202FB0642D36D0133D365022B06D927
:1016780013460022DA65042283F86020DDE72C2374
:1016880003FB0643022283F86020D7F8003523F0D5
:10169800804343F00043C7F80035CEE72C2303FB13
:1016A8000643022283F86020D7F8003523F08043F0
:1016B80043F00043C7F80035BFE7AB6813F0100FDD
:1016C8003FF46DAF2C2303FB064393F83F30032B05
:1016D8000CD00BB1022B06D12C2303FB06430022AE
:1016E800DA65236963B11023AB6058E72C2303FB49
:1016F80006430022DA653146206801F062FDF2E710
:101708002C2303FB0643032283F86120314620681B
:1017180001F057FDE7E738B5036803EB411202F51E
:10172800A065AC6814F0040F19D1AC6814F0200F50
:1017380021D02023AB602C2303FB010393F83D3019
:10174800012B17D12C2303FB0103002283F83D2032
:10175800022283F86020006801F033FD0AE00423C8
:10176800AB602C2303FB0103062283F86120006889
:1017780001F027FD38BDAC6814F4007F1FD1AC68B8
:1017880014F0010F22D02C2303FB01030022DA6599
:10179800AB6813F0400F07D02C2303FB0103012291
:1017A80083F83D204023AB600122AA602C2303FB71
:1017B800010383F86120006801F003FDDAE74FF4C4
:1017C8000073AB60006801F0FCFCD3E7AC6814F070
:1017D800400F24D1AC6814F0080F31D1AC6814F074
:1017E800100F39D02C2202FB01020024D4650324F7
:1017F80082F8614092F83D205AB92C2202FB01027E
:1018080092F83C202AB92C2202FB0102012082F81E
:101818003D00184601F0D5FC1023AB60AAE72C2246
:1018280002FB0100042280F86120012280F83D209B
:101838000022C265184601F0C4FC4023AB6099E75A
:101848000823AB602C2303FB0103052283F86120E6
:10185800006801F0B6FC8DE7AC6814F0800F25D065
:10186800026982B12C2202FB0102D36D0133D365D8
:10187800022B12D82C2303FB0103022283F86020D9
:101888008023AB6076E72C2202FB0102062082F857
:101898006100184601F095FCF2E713460022DA656C
:1018A800042283F8602002F0C9FFE9E7AC6814F469
:1018B800806F23D1AB6813F0020F3FF45BAF2C238A
:1018C80003FB010393F86130012B24D0032B56D07E
:1018D800042B64D0052B69D0062B01D0082B54D1DA
:1018E8002C2404FB0104E36D0133E365022B64D966
:1018F8000022E265042284F8602046E02C2202FBE4
:101908000102082082F86100184601F05AFC4FF4E1
:101918008063AB602EE72C2303FB0103012283F8CD
:10192800602093F83F30023BDBB293422DD8046924
:1019380044B92C2303FB010393F8552082F00102DC
:1019480083F85520012C20D12C2303FB0103DB6CE9
:10195800DBB12C2202FB0102B2F840201344013B08
:10196800B3FBF2F313F0010F0FD02C2303FB010399
:1019780093F8552082F0010283F8552005E02C23C6
:1019880003FB0103022283F860200223AB602C23AF
:1019980003FB010393F8602002F050FFEAE62C23D2
:1019A80003FB0103022283F86020EEE72C2303FBEC
:1019B8000103052283F86020E7E72C2303FB0103DA
:1019C800022483F86040D2F8003523F0804343F0C6
:1019D8000043C2F80035D8E7F8B50446056828463C
:1019E80001F032FA012800D0F8BD2E46206801F037
:1019F80027FA0028F8D0206801F022FA10F4001F16
:101A080003D023684FF400125A61206801F018FAD5
:101A180010F4801F03D023684FF480125A612068A5
:101A280001F00EFA10F0806F03D023684FF0806247
:101A38005A61206801F004FA10F0020F02D02368FE
:101A480002225A61206801F0FBF910F0005F08D00B
:101A580023684FF000525A61D5F8403413F0010F53
:101A68001DD0206801F0ECF910F0807F26D12068A5
:101A780001F0E6F910F0080F24D1206801F0E0F930
:101A880010F0100F25D1206801F0DAF910F0007F6E
:101A9800AAD0206801F090FB074600252CE0102111
:101AA800284601F045F9284601F06AF90121206825
:101AB80001F07CFA204602F0BBFED2E72046FFF791
:101AC80077FCD4E7204602F0A7FE236808225A6173
:101AD800D3E72268936923F0100393612046FFF748
:101AE800C5FA2268936943F010039361CBE7E9B222
:101AF8002046FFF710FE0135A368AB4212D905F066
:101B08000F0327FA03F313F0010FF4D006EB451384
:101B1800D3F8003513F4004FE9D0E9B22046FFF7B7
:101B28009FFCE8E723684FF000725A615CE790F881
:101B3800F832012B0ED010B50446012180F8F812B6
:101B4800006801F072FA206801F0E5F8002084F8D6
:101B5800F80210BD0220704790F8F832012B0BD024
:101B680010B50446012380F8F832006801F056FCED
:101B7800002084F8F80210BD0220704708B50068FC
:101B880001F034FA08BD2C2303FB010191F8600031
:101B980070472C2303FB0101086D704708B50068E6
:101BA80001F071FA08BD08B5006801F061FA08BDD6
:101BB800002800F0CC80F8B5044690F83D30002BA2
:101BC80077D0242384F83D302268136823F001037A
:101BD80013602268136843F4004313602268136893
:101BE80023F40043136000F0D5FE62685A4B9A4212
:101BF80064D85A4B98428CBF00230123002B40F035
:101C0800A880574DA5FB0035AF0C2668716821F0F8
:101C18003F0141EA9541716021680B6A23F03F0357
:101C280065684D4A95424FD87A1C13430B62256864
:101C3800E96921F44F4121F0FF016368464A934264
:101C48004CD801385B00B0FBF3F0013040F6FC7370
:101C5800184278D0C0F30B030B43EB6121680B6883
:101C680023F0C003E269206A024313430B60216832
:101C78008B6823F4034323F0FF032269E0680243DF
:101C880013438B602168CB6823F0FF036269A06966
:101C980002431343CB602268136843F001031360C7
:101CA80000202064202384F83D30206384F83E001F
:101CB800F8BD80F83C30FEF72BFF82E7294B9842AD
:101CC8008CBF0023012399E74FF4967202FB07F2B9
:101CD800254DA5FB025292090132A6E7A268BAB9BE
:101CE800461E03EB4307B6FBF7F60136C6F30B06B1
:101CF800B6FA86F6760946BBC2B9421E03EB430321
:101D0800B2FBF3F20132C2F30B0242F40043A3E741
:101D1800461E03EB830707EB8707B6FBF7F601368A
:101D2800C6F30B06B6FA86F67609E4E7421E03EB1D
:101D3800830303EB8303B2FBF3F20132C2F30B021A
:101D480042F4404388E7042386E7012384E701201F
:101D580070470120ACE700BFA08601007F841E0009
:101D680083DE1B43FF083D00D34D6210002800F0BE
:101D7800BD8070B5044690F84130002B51D0022246
:101D880084F841202168CB6923F47B6323F00F0397
:101D9800CB6123681A626369934263D0E368002BBE
:101DA80046D11025A368202B00D86D00012000F033
:101DB800ABFE2369B3F5007F3CD0B0FBF5F000EB38
:101DC800800043006069B3FBF0F30533484AA2FB87
:101DD8000323C3F3C002C2EBD3035B0811029A1EAC
:101DE800FD2A41D822690A43216813430B622168FE
:101DF800CB6923F47B6323F00F036268A068024376
:101E0800E0680243A0690243134343F40063CB61D3
:101E1800236A012B2ED000206064012384F841300E
:101E280070BD80F84030334B4363FEF7ABFEA6E746
:101E38002025B7E7E36853B1AD00B0FBF5F000EB40
:101E4800800043006069B3FBF0F30533BEE7ED00A3
:101E5800B0FBF5F000EB800043006069B3FBF0F3E2
:101E68000533B3E70021BAE7636C43F010036364FA
:101E78000120D5E7204B63632268204B9A421FD08C
:101E88004FF04022D36923F47B6323F00F03D3611F
:101E980022681A4B9A4215D04FF0402302221A6248
:101EA8002268164B9A4210D04FF04025EB699BB23E
:101EB8006268B2F5007F0AD0B2B94FF4807008E0CA
:101EC8000F4ADFE7A3F58063E8E70D4DEEE74FF42F
:101ED80080702689A189228B304301430A4313432A
:101EE80043F40063EB6196E70020F2E701207047B6
:101EF800CDCCCCCC831F00089521000800380040C9
:101F080000340040704708B5426A03681288DA60F6
:101F1800436A02334362438D9BB2013B9BB24385C4
:101F2800438D9BB203B108BD0268536823F0A00338
:101F38005360012380F84130FFF7E4FFF3E770476F
:101F480008B50368DA68C36A1A80C36A0233C362D1
:101F5800438E9BB2013B9BB24386438E9BB203B137
:101F680008BD0268536823F060035360012380F8BA
:101F78004130FFF7E4FFF3E7704710B584B004463B
:101F880002689368039390F84130DBB2042B06D0C3
:101F980094F84130DBB2032B2CD004B010BD039B66
:101FA80013F0010F03D0536813F0400F1FD1039BA8
:101FB80013F0400FECD023685A6812F0200FE7D0D6
:101FC8005A6822F060025A60002301932368DA6895
:101FD80001929B680193019B012384F84130636C53
:101FE80043F0020363642046FFF7C6FFD0E7FFF71C
:101FF800A7FFDCE7039B13F0020F04D023685B689C
:1020080013F0800F1DD1039B13F0080FC5D0236870
:102018005A6812F0200FC0D05A6822F0A0025A6005
:102028000023029323689B680293029B012384F890
:102038004130636C43F0040363642046FFF79CFF60
:10204800ABE72046FFF75FFFDDE7704708B5436A57
:102058009A1C426202681B88D360438D9BB2013B85
:102068009BB24385438D9BB23BB90268536823F00A
:10207800A0035360438E9BB203B108BD012380F8CF
:102088004130FFF7E2FFF8E708B50268154B9A42BE
:102098001CD04FF04023DA68C36A991CC1621A80C9
:1020A800438E9BB2013B9BB24386438E9BB263B97E
:1020B80002680C4B9A420CD04FF04022536823F030
:1020C80060035360438D9BB22BB108BDA3F58063B9
:1020D800E1E7054AF2E7012380F84130FFF7B5FF51
:1020E800F3E700BF003800400034004008B5436AF9
:1020F8009A1C42621A880168134B994218D04FF013
:102108004023DA60438D9BB2013B9BB24385438DEC
:102118009BB263B902680C4B9A420CD04FF0402234
:10212800536823F0A0035360438E9BB22BB108BDC4
:10213800A3F58063E5E7054AF2E7012380F841301B
:10214800FFF783FFF3E700BF00380040003400408A
:1021580008B50368DA68C36A991CC1621A80438E9D
:102168009BB2013B9BB24386438E9BB23BB902684C
:10217800536823F060035360438D9BB203B108BDDD
:10218800012380F84130FFF760FFF8E710B586B00B
:10219800044603689A680592704A93426FD04FF0DC
:1021A8004022916804915B680393536802936368C3
:1021B800B3F5007F01D0002B70D1059B13F0020FFF
:1021C80003D0039B13F0800F5CD1049B13F0010F25
:1021D80003D0029B13F0400F58D1049B13F0400F1B
:1021E80024D0029B13F0200F20D022685B4B9A4228
:1021F80050D04FF04022536823F0600353602268A8
:10220800536823F0A0035360002300932368DA681F
:1022180000929B680093009B012384F84130636C13
:1022280043F0020363642046FFF7A6FE059B13F004
:10223800080F22D0039B13F0200F1ED0226853688A
:1022480023F0A00353602268444B9A4224D04FF0F5
:102258004022536823F060035360002301932368EE
:102268009B680193019B012384F84130636C43F020
:10227800040363642046FFF77FFE06B010BDA2F595
:1022880080628EE72046FFF7E1FE9EE72046FFF7D3
:10229800FBFEA2E7324AAEE7314ADAE7049B13F0C5
:1022A800020F03D0029B13F0800F4AD1059B13F055
:1022B800010F03D0039B13F0400F46D1059B13F089
:1022C800400F1CD0039B13F0200F18D022685368CE
:1022D80023F0600353602268204B9A4239D04FF0B4
:1022E8004022536823F0A0035360012384F841304F
:1022F800636C43F0020363642046FFF73DFE049BD2
:1023080013F0080FB9D0029B13F0200FB5D0226844
:10231800124B9A421FD04FF04022536823F0A0037B
:1023280053602268536823F060035360012384F8E4
:102338004130636C43F0040363642046FFF71CFEDE
:102348009BE72046FFF7D2FEB0E72046FFF700FFE5
:10235800B4E7034AC5E7024ADFE700BF0038004098
:1023680000340040002800F0DF8170B582B00446D8
:10237800036813F0010F3BD0A64B9B6803F00C03D6
:10238800042B2CD0A34B9B6803F00C03082B21D003
:102398006368B3F5803F4FD0B3F5A02F52D09D4B63
:1023A8001A6822F480321A601A6822F480221A60AD
:1023B8006368002B50D0FEF7E5FC0546954B1B687B
:1023C80013F4003F14D1FEF7DDFC401B6428F5D957
:1023D8000320B0E18F4B5B6813F4800FD8D08D4B8E
:1023E8001B6813F4003F03D06368002B00F09E8144
:1023F800236813F0020F54D0864B9B6813F00C0F20
:102408003ED0844B9B6803F00C03082B33D0E36861
:10241800002B67D0804B01221A60FEF7B3FC0546FB
:102428007C4B1B6813F0020F53D1FEF7ABFC401B2B
:102438000228F5D903207EE1764A136843F48033F5
:102448001360B5E7734B1A6842F480221A601A6861
:1024580042F480321A60ABE7FEF794FC05466D4BF8
:102468001B6813F4003FC3D0FEF78CFC401B6428A4
:10247800F5D903205FE1674B5B6813F4800FC6D181
:10248800644B1B6813F0020F03D0E368012B40F084
:102498004F81604A136823F0F803216943EAC103B6
:1024A8001360236813F0080F40D0636963B35B4B74
:1024B80001221A60FEF766FC0546564B5B6F13F067
:1024C800020F33D1FEF75EFC401B0228F5D903202A
:1024D80031E1504A136823F0F803216943EAC10344
:1024E8001360DEE74C4B00221A60FEF74BFC0546F2
:1024F800484B1B6813F0020FD3D0FEF743FC401B78
:102508000228F5D9032016E1444B00221A60FEF791
:1025180039FC05463F4B5B6F13F0020F06D0FEF700
:1025280031FC401B0228F5D9032004E1236813F08D
:10253800040F78D0374B1B6C13F0805F0DD100234C
:102548000193344B1A6C42F080521A641B6C03F0EE
:1025580080530193019B012500E00025304B1B6847
:1025680013F4807F21D0A368012B32D0052B36D0FD
:10257800284B1A6F22F001021A671A6F22F0040220
:102588001A67A368002B34D0FEF7FCFB0646214BE4
:102598001B6F13F0020F45D1FEF7F4FB801B41F2CD
:1025A80088339842F3D90320C5E01D4A136843F4E1
:1025B80080731360FEF7E6FB0646194B1B6813F49D
:1025C800807FD0D1FEF7DEFB801B0228F5D90320DF
:1025D800B1E0104A136F43F001031367D1E70D4BC5
:1025E8001A6F42F004021A671A6F42F001021A6762
:1025F800C7E7FEF7C7FB0646064B1B6F13F0020F33
:1026080010D0FEF7BFFB801B41F288339842F3D904
:10261800032090E00038024000004742800E474205
:1026280000700040EDB9A369002B00F08380494A8F
:10263800926802F00C02082A51D0022B17D0464BA0
:1026480000221A60FEF79EFB0446424B1B6813F0FB
:10265800007F42D0FEF796FB001B0228F5D9032025
:1026680069E03C4A136C23F080531364DBE73A4B70
:1026780000221A60FEF786FB0546364B1B6813F0EE
:10268800007F06D0FEF77EFB401B0228F5D9032009
:1026980051E0E369226A1343626A43EA8213A26A39
:1026A8005208013A43EA0243E26A43EA0263294ACA
:1026B8005360294B01221A60FEF764FB0446254B40
:1026C8001B6813F0007F06D1FEF75CFB001B022895
:1026D800F5D903202FE000202DE000202BE0012B6E
:1026E8002BD01C4B5B6803F48001E269914226D130
:1026F80003F03F02216A8A4223D1616A47F6C07219
:102708001A40B2EB811F1ED103F44031A26A52086D
:10271800013AB1EB024F18D103F07063E26AB3EBF0
:10272800026F14D1002006E001207047012002E06A
:10273800012000E0002002B070BD0120FBE701206D
:10274800F9E70120F7E70120F5E70120F3E7012089
:10275800F1E700BF0038024060004742F8B52F4B50
:102768009B6803F00C03042B53D0082B53D12B4B3D
:102778005A6802F03F025B6813F4800F28D0274B99
:102788005B68C3F3881358010021C01A61F1000186
:102798008E0146EA906687013C1A66EB0105E9005E
:1027A80041EA5471E000C01841F100014B0243EACC
:1027B800D0534402204619460023FDF787FE174BE5
:1027C8005B68C3F3014301335B00B0FBF3F023E024
:1027D800124B5B68C3F388135C010025E41A65F1AA
:1027E8000005AE0146EA9466A701381B66EB0501B1
:1027F800CC0044EA5074C500E81844F100018B028B
:1028080043EA90538402204619460023FDF75EFEF2
:10281800D5E7034800E00348F8BD00BF0038024090
:1028280000127A000024F400002800F09B8070B5A4
:102838000D4604464F4B1B6803F007038B4208D232
:10284800CBB24C4A1370136803F007038B4240F075
:102858008B80236813F0020F17D013F0040F04D0F5
:10286800454A936843F4E0539360236813F0080FD4
:1028780004D0414A936843F4604393603E4A9368A6
:1028880023F0F003A1680B439360236813F0010F52
:1028980032D06368012B21D09A1E012A25D9364AE5
:1028A800126812F0020F61D033498A6822F00302DD
:1028B80013438B60FEF766FA06462F4B9B6803F0BE
:1028C8000C036268B3EB820F16D0FEF75BFA801B2D
:1028D80041F288339842F0D9032042E0264A126830
:1028E80012F4003FE0D101203BE0234A126812F0C5
:1028F800007FD9D1012034E01E4B1B6803F0070389
:10290800AB4207D9EAB21B4B1A701B6803F00703E6
:10291800AB422DD1236813F0040F06D0164A9368F2
:1029280023F4E053E1680B439360236813F0080F26
:1029380007D0114A936823F46043216943EAC1032D
:102948009360FFF70BFF0C4B9B68C3F303130B4A11
:10295800D35CD8400A4B18600A4B1868FEF7C6F9D2
:10296800002070BD012070470120FAE70120F8E738
:102978000120F6E7003C024000380240644A0008A3
:10298800640000206C000020014B1868704700BFED
:102998006400002008B5FFF7F7FF044B9B68C3F3FA
:1029A8008223034AD35CD84008BD00BF00380240E8
:1029B800744A000830B583B00446036813F0050F65
:1029C80006D1236813F0020F2ED1002003B030BDCA
:1029D800494B00221A60FEF7D5F90546474B1B689C
:1029E80013F0006F06D0FEF7CDF9431B022BF5D983
:1029F8000320EBE76268A3681B0743EA82133F4A98
:102A0800C2F884303C4B01221A60FEF7BBF9054638
:102A18003A4B1B6813F0006FD3D1FEF7B3F9431B91
:102A2800022BF5D90320D1E700230193334B1A6C0D
:102A380042F080521A641B6C03F080530193019B8F
:102A48002F4A136843F480731360FEF79BF9054619
:102A58002B4B1B6813F4807F06D1FEF793F9431BB9
:102A6800022BF5D90320B1E7244B1B6F13F44073F5
:102A780012D0E26802F440729A420DD01F4B1A6FCE
:102A880022F440721F4901200860002008601A677C
:102A98001B6F13F0010F13D1E36803F44072B2F512
:102AA800407F1ED0154A936823F4F81393601349A6
:102AB8000B6FE268C2F30B0213430B67002085E734
:102AC800FEF760F905460D4B1B6F13F0020FE3D1BB
:102AD800FEF758F9401B41F288339842F3D9032096
:102AE80074E706498A6822F4F81223F0704323F445
:102AF800407313438B60DAE76800474200380240AE
:102B080000700040400E4742012801D00020704765
:102B1800164B9B6813F4000303D0012B23D11448F0
:102B28007047124B5B6813F4800F14D00F4B5B682F
:102B380003F03F030F48B0FBF3F00C4AD2F884309F
:102B4800C3F3881300FB03F0D2F88430C3F3027395
:102B5800B0FBF3F07047054B5B6803F03F03064892
:102B6800B0FBF3F0E9E70020704700BF00380240EF
:102B78000080BB0000127A000024F40000285AD01C
:102B880010B50446436A33B94368B3F5827F05D06C
:102B98000023C36102E00023036143610023A362B1
:102BA80094F85130002B40D0022384F85130226829
:102BB800136823F040031360636803F48273A26808
:102BC80002F404421343E26802F4006213432269E8
:102BD80002F002021343626902F001021343A26980
:102BE80002F400721343E26902F038021343226AC6
:102BF80002F080021343A26A02F4005221681343D0
:102C08000B60638B03F00403626A02F01002216810
:102C180013434B602268D36923F40063D361002017
:102C28006065012384F8513010BD84F85030204687
:102C3800FEF706F8B8E701207047000082B00023CD
:102C48000193019B01330193019A0F4B9A4215D8C6
:102C58000369002BF5DA00230193036943F00103AC
:102C68000361019B01330193019A074B9A4208D8EB
:102C7800036913F0010FF4D1002000E0032002B033
:102C880070470320FBE700BF400D030084B010B578
:102C9800044603A880E80E00089B012B1FD1A36BF4
:102CA80023F48033A363E36823F4840323F040030D
:102CB800E360E36823F44013E3600F9B012B09D022
:102CC8002046FFF7BBFF069B012B1BD0BDE8104039
:102CD80004B07047E36843F48013E360F0E7E36807
:102CE80043F04003E3602046FFF7A8FF0C9B23B99D
:102CF800A36B43F48033A363E5E7A36B23F480332A
:102D0800A363E0E7A36843F00603A360A36843F066
:102D18002003A360DAE7836843F00103836000209F
:102D28007047836823F00103836000207047000028
:102D380082B000230193019B01330193019A0F4B49
:102D48009A4215D80369002BF5DA0023019389010B
:102D580041F020010161019B01330193019A074B66
:102D68009A4208D8036913F0200FF4D1002000E03C
:102D7800032002B070470320FBE700BF400D0300AB
:102D880082B000230193019B01330193019A0E4BFA
:102D98009A4213D80369002BF5DA00230193102314
:102DA8000361019B01330193019A074B9A4208D8AA
:102DB800036913F0100FF4D1002000E0032002B0E3
:102DC80070470320FBE700BF400D030070B49DF877
:102DD8000C4064B903339D08AC4208D200EB0233BF
:102DE80003F5805351F8046B1E600134F4E70020AA
:102DF80070BC7047F0B482B0074608463E46950856
:102E080002F003020023AB4206D206F58054246880
:102E180040F8044B0133F6E77AB107F580573B6871
:102E280001930025EBB2DC00019BE34000F8013B75
:102E38000135013A92B2002AF4D102B0F0BC7047D1
:102E48004269806910407047406900F0010070478E
:102E580038B50546C36823F0C043C360012913D0C1
:102E680019BBC36843F08043C36000240120FDF709
:102E78008FFF01342846FFF7E7FF08B1312CF5D959
:102E8800322C14D0002038BDC36843F00053C3600F
:102E980000240120FDF77CFF01342846FFF7D4FF0A
:102EA8000128EDD0312CF4D9EAE70120EBE7012025
:102EB800E9E7000084B070B5044605A880E80E0074
:102EC80025460023C4F8003EA36B43F40013A36314
:102ED800A36B23F40023A363A36B23F48023A363CE
:102EE800E36B13F4807F10D0079B012B06D0D4F836
:102EF800003423F00403C4F800340CE0D4F80034A0
:102F080043F00403C4F8003405E0D4F8003423F097
:102F18000403C4F8003410212046FFF709FF0646D1
:102F280000B101262046FFF72BFF00B10126002241
:102F3800069B93420AD905EB42134FF0FF31C3F8C1
:102F480008150021C3F80C150132F1E70023A3612D
:102F58004FF0FF336361E36B13F4807F17D04FF4B6
:102F68000073636203F18073A3620D4BC4F80031F0
:102F7800089B1BB9A36943F01003A361A269094B1D
:102F88001343A3613046BDE8704004B07047802306
:102F9800636203F5C003A362034BC4F80031E7E79B
:102FA8000003E000080020A3E000400010B400F592
:102FB8008064D0F8003423F00303C0F80034D0F85C
:102FC800003401F003021343C0F80034012905D08E
:102FD800022907D000205DF8044B70474BF6803378
:102FE8006360F7E741F270736360F3E730B583B06D
:102FF800044600250195D0F840340193019B23F045
:103008002E030193019B43F48073C0F8403464207D
:10301800FDF7BEFE019B23F48073C4F840340A20F8
:10302800FDF7B6FE284603B030BD82B000230193F9
:10303800D0F840340193019B23F02E030193019BA8
:1030480013F4805F01D101290CD0019B13F4805F38
:1030580005D021B9019B23F48053C0F840340020E7
:1030680002B07047019B43F48053C0F84034ECE74A
:1030780082B000230193D0F8403401930198C0F343
:10308800414002B0704700F58060806880B27047A8
:103098002DE9F84391461C469DF8245000EB411653
:1030A80006F5A0634FF0FF329A60032D76D8DFE86B
:1030B80005F00267021840F29D42DA6019F0800FAD
:1030C80009D1C26B12F4807F6AD0DA6842F06002DC
:1030D800DA6000270CE0DA6842F48072DA600027D0
:1030E80006E040F29D62DA6019F0800F42D10027B5
:1030F800DA6842F00202DA60D0F8183401F00F0101
:10310800012202FA01F11943C0F81814836943F047
:103118000073836119F0800F44D14FF00008FFF766
:10312800A7FF9DF82030022B3FD00021A30503F014
:10313800FE534FEAC92909F4F04943EA0903AC04EC
:1031480004F440242343BDF82820C2F30A021343A1
:1031580043EA08030B43C6F80035032D01D0012DBF
:1031680005D1D6F8003543F00053C6F80035384687
:10317800BDE8F883DA6842F48072DA600027B7E7BE
:1031880040F22522DA6019F0800F01D10027AFE75D
:10319800DA6842F4C072DA600027A9E70127A7E7D6
:1031A8000027A5E74FF40048B9E7022802D04FF4FA
:1031B8000031BBE70021B9E700F58060406980B2C3
:1031C800704730B482B00023019300EB411101F540
:1031D800A064D1F80035C3F38143D1F80025856890
:1031E80015F0200F02D0D20F002A4FD01BB3022BAC
:1031F80021D0D1F8003543F08043C1F80035D0F82C
:10320800103413F47F0F45D1D1F8003523F0004373
:10321800C1F80035D1F8003543F00043C1F8003556
:10322800019B01330193019BB3F57A7F2ED8236864
:10323800002BF5DB2AE0D1F8003543F08043C1F8D4
:103248000035836813F0200F20D1C36A13F47F0F71
:1032580016D1D1F8003523F00043C1F80035D1F874
:10326800003543F00043C1F80035019B0133019359
:10327800019BB3F57A7F09D82368002BF5DB05E0BD
:10328800D1F8003543F00043C1F80035002002B002
:1032980030BC7047D1F8003543F00043C1F8003521
:1032A800F4E7000000EB4111064AC1F81025D1F8F7
:1032B800003523F0804343F00043C1F80035002077
:1032C800704700BF0000088070B584B04B78C46BAD
:1032D80014F4807F07D00C792CB9012A11D012B9C7
:1032E8004C79012C1AD04E69E6B10C893519013D8B
:1032F800B5FBF4F5ADB2B5F5807F14D94FF4807500
:1033080011E0CC790CB1022CE9D100EB4314D4F8CC
:103318000C5525F07005C4F80C55E0E74978FFF71F
:10332800C1FF6AE00125CC78002C4DD00C8904FB44
:1033380005F40C610C69C4F31204374E06EAC5455E
:103348002C438D7A6D0705F0C04500EB431303F558
:10335800A0662C43C3F8104512B1CC68C3F81445D5
:1033680000F58065AC6814F0010FD3F8004524F02F
:103378000054C3F80045D3F800450CBF4FF0005681
:1033880000263443C3F80045D3F800450394039C52
:1033980024F080440394CC78C4B1039C44F40044E2
:1033A8000394039C44F000440394039CC3F8004531
:1033B8001ABBCB780BBB4B69FBB1CA79032A15D86A
:1033C800DFE802F0091E091E0E61B3E7039C24F42E
:1033D80000440394E5E70333C26A92B2C3F38F0350
:1033E8009A4203D2836943F0200383610023009348
:1033F8008B8A4A78C968FFF7E9FC002004B070BDE1
:1034080003332A6992B2C3F38F039A42EED28369D7
:1034180043F080638361E9E70000F81F70B582B06C
:103428000546044600230193FFF77BFC102128463C
:10343800FFF77EFC064600B101262846FFF7A0FCF0
:1034480000B1012600220AE004EB4211D1F8003550
:1034580023F0802343F08043C1F8003501320F2A5E
:10346800F2D9002100E001310F2916D804EB4110F0
:1034780000F5A062D0F8003523F4004343F0404340
:10348800C0F80035019B01330193019BB3F57A7FA6
:10349800E9D81368002BF5DBE5E74FF0FF33C5F8F3
:1034A80014346B612846FFF736FC304602B070BD15
:1034B8000020704708B5212202742022427400229D
:1034C800428282820722C28200F0AEFF08BD08B5A0
:1034D800A12202742122427400224282828207229F
:1034E800C28200F0A1FF08BD38B50446D0F87C338D
:1034F800D9694031FFF7EBFF054620B9D4F8D4333A
:10350800022120469847284638BD38B50446D0F8E9
:103518007C33DD69297879B9297BB1B9697BF1B93F
:10352800D4F87C33D86928B1FCF79AFED4F87C33F8
:103538000022DA61002038BD01F0C1F82978204660
:1035480001F0D5F800232B70E6E7204601F0B7F824
:10355800297B204601F0CBF800232B73DEE72046B9
:1035680001F0ADF8697B204601F0C1F800236B73C8
:10357800D6E7F0B585B0044601230222114600F0D3
:1035880040FB012800F2AE8006460146204600F0C6
:103598002EFB0746002840F0A980D4F87C53502021
:1035A800FCF756FEE861D4F87C33DD69002D00F0A5
:1035B8009F80502200212846FCF75AFE1A2303FB5D
:1035C800064393F84E2393F94E33002B72DB697848
:1035D800204601F079F8014628706A786B890293D1
:1035E8000323019394F81D33009394F81C33204669
:1035F80001F055F800222978204601F081F90023CE
:103608001A460A21204600F0FCFA012872D81A232B
:1036180003FB004393F84E2393F94E33002B51DB01
:10362800AA731A2303FB0043B3F850332B831A23DE
:1036380003FB004393F8562393F95633002B49DBD9
:10364800AA731A2303FB0040B0F858332B83A97BD5
:10365800204601F039F86873E97B204601F034F818
:103668002873AA7B697B2B8B02930226019694F818
:103678001D33009394F81C33204601F010F8EA7BC0
:10368800297B6B8B0293019694F81D33009394F871
:103698001C33204601F003F8002685F84C603246BA
:1036A800697B204601F02CF93246297B204601F03F
:1036B80027F918E06A701A2000FB0646B6F850335E
:1036C8006B8184E7EA731A2303FB0043B3F8503392
:1036D8006B83ACE7EA731A2303FB0040B0F8583356
:1036E8006B83B4E70227384605B0F0BD0227FAE736
:1036F8000227F8E70227F6E7704730B583B005469A
:10370800D0F87C33DC6994F84D30012B03D0022BC0
:1037180019D003B030BD606A228B90420AD9637B0E
:10372800E16901200090284600F080FF022384F818
:103738004D30EEE7637BE1690122009282B22846B0
:1037480000F074FFF2E7617B01F0C6F8012805D0AC
:103758000228DED1012384F84D30DAE7636A228B30
:1037680093420AD99B1A6362E3691A44E261636A65
:1037780033B1012384F84D30CBE700236362F6E7C9
:10378800002384F84D302846FFF7B6FFC1E770479D
:1037980038B50446D0F87C33DD6995F84E30032BF4
:1037A80002D0042B09D038BD2B7B6A8B296A00F024
:1037B80053FF042385F84E30F5E7297B01F08CF898
:1037C8000128F0D1297B204601F080F8AB6A8342BA
:1037D8000BD06A8B824208D21B1AAB622B6A184440
:1037E8002862032385F84E30DDE7002385F84E3044
:1037F8002046FFF7CCFFD6E7704770B50446D0F8EF
:103808007C33DE6996F84C50042D04D8DFE805F0C7
:103818003F0513394100012539E0B16CFFF74AFE35
:1038280018B9022386F84C3031E001283AD0042335
:1038380086F84C302BE006F14001FFF748FE0546BC
:10384800C0B9002386F84C30736C23F07F42B16C0A
:103858004B6823F07F439A4201D0012517E0326C70
:103868000B689A4201D0012511E02046FFF7C4FFFA
:1038780001250CE001280AD0042386F84C300125E4
:1038880005E0FFF73AFF2046FFF782FF01252846AB
:1038980070BD002100F081FE30B9002386F84C305D
:1038A8000125F4E70546F2E70125F0E710B40446E0
:1038B80000230F2B07D803F1E00204EB820200215A
:1038C80051600133F5E70023B3F5007F05D2E21814
:1038D800002182F81C110133F6E700202070607087
:1038E8000123A370C4F8C40323764022A271607632
:1038F80084F81C0384F81D3384F81F0384F81E031E
:103908005DF8044B704708B50378DBB20B2B00D089
:1039180008BDD0F87C33002BFAD09B699847F7E7AD
:1039280070B584B004464578072D00F22C81DFE895
:1039380015F00800480069009A00BF00E500FE0085
:103948001701082100F0AFFD18B1032821D0012587
:1039580009E194F82D33A3710125657002930026BF
:10396800019694F81D33009394F81C338022217932
:10397800204600F094FEA3790293019694F81D3333
:10398800009394F81C3332466179204600F087FE94
:10399800E9E094F81E330133DBB284F81E33032BBD
:1039A80003D90D2323700125DDE06179204600F05D
:1039B8009EFE2179204600F09AFE002323700125FF
:1039C800D1E0122100F06FFD10B902236370CAE044
:1039D800032840F0C88094F81E330133DBB284F822
:1039E8001E33032B02D90D232370BCE061792046D6
:1039F80000F07DFE2179204600F079FE00236370F7
:103A08002370B0E0012100F095FD18B1032824D0FF
:103A18000125A8E0022000F088FF012584F81C5346
:103A280003236370A37902930026019694F81D334B
:103A380000932B4680222179204600F030FEA3799E
:103A48000293019694F81D33009394F81C33324680
:103A58006179204600F023FE85E00D2323700023C2
:103A6800637001257FE0092100F036FD18B90423B1
:103A78006370012577E0032801D0012573E094F8ED
:103A88001E330133DBB284F81E33032B03D90D2315
:103A98002370012567E06179204600F028FE21792E
:103AA800204600F024FE00236370237001255AE0AD
:103AB800B0F83A1300F010FD18B90523637001251A
:103AC80051E0032801D001254DE094F81E3301335D
:103AD800DBB284F81E33032B03D90D232370012591
:103AE80041E06179204600F002FE2179204600F08D
:103AF800FEFD002363702370012534E090F8341331
:103B080019B90623437001252DE0FF2300F58E72B5
:103B180000F0F8FC18B906236370012523E0032898
:103B280001D001251FE00623637001251BE090F8F2
:103B3800351319B907234370012514E0FF2300F555
:103B48008E7200F0DFFC18B90723637001250AE0C4
:103B5800032801D0012506E007236370012502E050
:103B680090F8365315B9284604B070BDFF2300F508
:103B78008E72294600F0C6FC05460028F3D00328BB
:103B880003D00125EFE70125EDE70025EBE7D8B1E4
:103B980070B50E46044680F8CC230025C0F87C5347
:103BA800C0F88053FFF782FE84F8235384F820532B
:103BB80084F8215384F822530EB1C4F8D463204604
:103BC80000F04AFE002070BD022070470A4651B13D
:103BD800D0F880334BB9591CC0F88013DE3340F855
:103BE800232000207047022070470220704790F879
:103BF8003C338B4203D980F82413002070470220FD
:103C0800704770B4064600200AE01A2404FB0565D4
:103C180095F849439C421AD0FF2B18D00130C0B206
:103C2800012813D805461A2404FB006494F8474376
:103C38008C4201D0FF29F1D11A2404FB056494F8C1
:103C480048439442E1D0FF2AE8D1DEE7FF2070BC68
:103C5800704710B5044600F076FE0121204600F0BA
:103C680041FE002010BD30B587B0044602238DF810
:103C7800173090F82133DBB2012B11D02378DBB257
:103C88000B2B7BD8DFE813F00F002100450015014E
:103C98007A007D00F20092009C00A600C2000C0190
:103CA80003230370EAE794F82033002B66D001233E
:103CB8002370C82000F039FE204600F054FE00238F
:103CC80084F81C33C4F8C83358E094F82333012B24
:103CD8000FD0D4F8C833B3F57A7F13D994F81F33CB
:103CE8000133DBB284F81F33032B08D90D2323706B
:103CF80044E0002384F81F33022323703EE00023AE
:103D080023703BE00A33C4F8C8330A2000F00DFEE4
:103D180034E0D4F8D43313B1042120469847642002
:103D280000F003FE204600F0C1FD84F81D030523C2
:103D380023700021204600F0C7FC607180212046D6
:103D480000F0C2FC01462071A37902930025019579
:103D580094F81D33009394F81C338022204600F019
:103D68009EFCA3790293019594F81D33009394F86F
:103D78001C332A466179204600F091FC002007B0E8
:103D880030BD2046FFF7CCFD8DF817009DF81730A1
:103D9800002BF3D184F8243394F83733012B02D065
:103DA80007232370EAE708232370E7E7D4F8D4331E
:103DB800002BE3D001212046984708232370DDE734
:103DC80094F83D13204600F0C6FB0028D6D10923FD
:103DD8002370D3E794F83F3313F0200F02D10A235E
:103DE8002370CBE70121204600F0C6FB8DF81700B1
:103DF8009DF8173013B90A232370BFE79DF81730D1
:103E0800DBB2032BBAD10A232370B7E7D4F8803387
:103E1800002BB3D00023C4F87C3373B1D4F87C33BF
:103E28000BB39B6820469847D0B906232370D4F873
:103E3800D433032120469847A0E7184603F1DE0251
:103E480054F82220117994F84723914202D0013383
:103E5800DBB2E2E7DE3054F82030C4F87C33DDE72B
:103E68000D2323708AE70D23237087E7D4F87C336A
:103E78009BB11B69204698478DF817009DF81730AD
:103E880013B90B23237079E79DF81730DBB2022BA7
:103E98007FF474AF0D23237070E70D2323706DE753
:103EA800D4F87C33002B3FF469AF5B692046984710
:103EB80064E7002384F821332046FFF7F7FCD4F8A1
:103EC8007C332BB1DB68204698470023C4F87C3349
:103ED800D4F8D43313B105212046984794F82233F7
:103EE800DBB2012B03D0204600F02DFD46E700236E
:103EF80084F822332046FFF7ACFE3FE7C0F8C4132E
:103F0800704708B5D0F8C4230132C0F8C423FFF7BE
:103F1800FAFC08BD012380F823337047002380F89A
:103F2800233370470346012280F82023002083F8BA
:103F3800210383F82203704738B50446012380F82B
:103F48002133002580F8205380F8235300F003FD27
:103F58002179204600F0CBFB6179204600F0C7FBB1
:103F6800284638BD10B40B7803704B7843708B78B3
:103F7800CC7843EA042343800B7903714B7943716E
:103F88008B798371CB79C371202B0CD8082B0CD378
:103F9800083BDBB2012404FA03F303F0013323F4F2
:103FA800803313B103E0402B01D04023C371082AAA
:103FB80016D90B7A4A7A43EA022303818B7ACA7AA2
:103FC80043EA022343810B7B4A7B43EA0223838132
:103FD8008B7B8373CB7BC3730B7C03744B7C4374E5
:103FE8005DF8044B70470B7803704B7843708B78FF
:103FF8008370CB78C3700B7903714B7943718B79DC
:104008008371CB79C3710B7A0372704770B406461B
:1040180013780B7053784B7093788B70D478CC707E
:104028001379507943EA00238B8095798D71EBB130
:1040380003F478438B801BB21079527940EA02224C
:1040480012F4C06F02D1C2F30A0201E04FF4007209
:1040580013438B80002096F81D337BB904F00304CA
:10406800012C05D0032C03D070BC70470320F2E765
:10407800013DEDB20F2DF7D90320F5E704F0030455
:10408800012C05D0032CEFD1002DEDD12046EBE714
:10409800013DEDB20F2DE7D90320E5E74378032B67
:1040A80000D070470378023B9A4228BF1A4692B262
:1040B800002393420DD210B4C418A47801F8014B20
:1040C80002339BB29342F7D300230B705DF8044B85
:1040D800704700230B70704730B583B00446057EE7
:1040E8006B1E0A2B00F2DE80DFE803F00610354174
:1040F80054617E8A9DAAC100427900F1100100F046
:104108005EFA02232376284603B030BD417900F0D9
:10411800E3FB0546012805D0042818D0022816D04C
:104128000125F0E7237CE28A42B113F0800F02D127
:1041380005232376E7E703232376E4E713F0800FCC
:1041480002D107232376DEE709232376DBE70B2357
:1041580023760125D7E7D0F8C433C3810379828950
:10416800816800F053FA042323760125CBE701790F
:1041780000F0B2FB012806D0052800F0958004283D
:1041880004D00125BFE709232376F5E70B2323761F
:104198000125B8E70125009543798289816800F0F7
:1041A8001FFAD4F8C433E38106232376ABE74179B9
:1041B80000F092FB0546012807D0052808D0022800
:1041C8000AD004280CD001259DE7072323769AE717
:1041D8000C232376032596E705232376012592E70A
:1041E8000B23237602258EE703790022114600F07F
:1041F8000DFAD4F8C433E38108232376012582E736
:10420800017900F069FB012805D0042807D00528AA
:104218004CD0012577E70D232376002573E70B2380
:10422800237601256FE70125009543790022114681
:1042380000F0D6F9D4F8C433E3810A23237662E781
:10424800417900F049FB012805D0022807D004284D
:1042580009D0012557E70D232376002553E70923C5
:10426800237601254FE70B23237601254BE7437E71
:104278000133DBB24376022B03D80125057685701E
:1042880041E7D0F8D433062198470025657661794F
:10429800204600F02CFA2179204600F028FA2570F3
:1042A800022530E701252EE703252CE703252AE719
:1042B80003780A8813440B800378184470472DE963
:1042C800F04383B005460C46097880F838136378C4
:1042D80080F83933A378E07843EA0023B3F5807F88
:1042E80028BF4FF48073A5F83A33237985F83C3317
:1042F800637985F83D33A37985F83E33E37985F80A
:104308003F33237A85F84033092902D0092385F8F9
:104318003833092A40F281800923ADF80630002697
:104328003746012E70D8B5F83A23BDF806309A42C0
:104338006AD90DF106012046FFF7BAFF0446437813
:10434800042BEED10378092B01D009230370B14661
:1043580005F54E701A2303FB06F30833184421466B
:104368000230FFF740FE4FF0000827E01A2303FB56
:10437800095393F84833022B3DD11A2303FB095301
:1043880093F849333BB90378092B04D00923037008
:1043980001E00723237005F54E7308F101081A217F
:1043A80001FB09F101EBC801083119442246043127
:1043B8002846FFF72BFE07465FFA88F81A2303FB07
:1043C800095393F84633434519D9B5F83A13BDF85C
:1043D8000620914213D90DF106012046FFF768FF28
:1043E80004464378052BE9D11A2303FB095393F8B4
:1043F8004733012BBAD02378072BCAD1CBE74345E3
:1044080010D80136F6B28CE795F83C33022B28BF5A
:104418000223B34202D9032700E00027384603B03D
:10442800BDE8F0830327F9E710B504468078012832
:1044380003D0022808D0012010BDA160A281012369
:1044480023760223A370F7E72046FFF745FE30B135
:10445800032804D00228EFD10123A370ECE701233D
:10446800A37000232376E7E738B50D4614461946AE
:10447800BDF810208378012B02D0FFF7D5FF38BD97
:1044880065F07F05057406234374448204F47F4471
:10449800B4F5407F03D000238382C282EDE740F267
:1044A80009438382F9E7F0B583B0044600F58E76B8
:1044B8000D46009133464FF480720021FFF7D4FF78
:1044C800074610B1384603B0F0BD2A46314604F21B
:1044D8002630FFF747FDF5E770B582B004460D4674
:1044E80000F11C06009133464FF400720021FFF7DB
:1044F800BBFF08B102B070BD2A4631462046FFF71F
:10450800DEFEF7E7F0B583B016461D4600F58E745B
:104518000093234641F440720021FFF7A5FF0746A8
:1045280010B1384603B0F0BD2A4631462046FFF7A1
:10453800B5FDF6E708B58378012B04D000221146B3
:10454800FFF772FF08BD00230374052242744182FD
:104558008382C382F2E708B58378012B04D0002256
:104568001146FFF761FF08BD002303740922427456
:1045780041828382C382F2E708B58378012B04D095
:1045880000221146FFF750FF08BD002303740322E1
:10459800427441828382C382F2E708B58378012B93
:1045A80004D000221146FFF73FFF08BD0223037421
:1045B80001234374002343828182C382F1E710B54B
:1045C80084B00B46114600240394082202920193FA
:1045D80000942346224600F0E9F9204604B010BDB5
:1045E80030B585B00C4619469DF8203090F81D531B
:1045F80005B1002303930292019401230093002341
:104608001A4600F0D3F9002005B030BD30B585B0AA
:104618000D46194600240394029201950122009246
:10462800234600F0C3F9204605B030BD30B585B04B
:104638000C4619469DF8203090F81D5305B100230B
:10464800039302920194012300930223002200F0B5
:10465800ADF9002005B030BD30B585B00D4619461E
:10466800002403940292019501220092022300F093
:104678009DF9204605B030BD00230F2B0CD803F15F
:10468800E00200EB8202526812F4004F02D00133BC
:10469800DBB2F2E798B270474FF6FF70704710B57B
:1046A80084B0BDF8204002949DF81C4001949DF808
:1046B8001840009400F05FF9002004B010BD08B560
:1046C80000F06CF9002008BD38B504460D46FFF728
:1046D800D3FF4FF6FF73984207D000F00F0345F45D
:1046E8000045E03304EB83046560C0B238BD0F2990
:1046F80006D8E03100EB81014B68C3F30E034B6031
:104708000020704704290CD0052902D0022904D0C2
:104718007047064B03221A707047044B02221A7026
:104728007047024B01221A70F2E700BFB800002060
:1047380008B501220B490C48FFF729FA48B90B497B
:104748000948FFF743FA38B90748FFF782FA30B942
:1047580008BDFCF7FBF8F2E7FCF7F8F8F4E7FCF71C
:10476800F5F8F5E70D470008B401002070000020B7
:1047780008B50248FFF777FA08BD00BFB40100206A
:1047880070B588B0002303930493059306930793A9
:104798000368B3F1A04F01D008B070BD00240194A4
:1047A8001B4D2B6B43F001032B632B6B03F00103B1
:1047B8000193019B4FF40073039304940594154EE1
:1047C80003A93046FCF762FB4FF4E053039302233E
:1047D8000493059406940A23079303A93046FCF72B
:1047E80055FB6B6B43F080036B6302946B6C43F473
:1047F80080436B646B6C03F480430293029B2246F4
:1048080021464320FCF7EAFA4320FCF71BFBC3E7E9
:10481800003802400000024008B5D0F80003FFF756
:1048280070FB08BD08B5D0F80003FFF77BFB08BD97
:1048380008B5D0F80003FFF77FFB08BD704708B53F
:10484800D0F80003FFF766FB08BD08B5D0F80003F1
:10485800FFF764FB08BD000090F8CC33012B01D0B2
:104868000020704710B504460F48C0F80043C4F84C
:10487800D0034FF0A0430360082383600123C36083
:104888000023036102228261C361FCF797FC40B9EF
:104898000548FDF783F901462046FFF72FFB002066
:1048A80010BDFCF753F8F3E78C05002008B5D0F8E5
:1048B800D003FDF778F9012804D0022804D000B10C
:1048C800012008BD0120FCE70220FAE708B5D0F86E
:1048D800D003FDF75EF908BD08B5D0F8D003FDF7A1
:1048E80052F908BD08B590F8CC33012B04D0C82084
:1048F800FCF74EFA002008BD084600F06DF8F6E710
:10490800D0F8D0032C2303FB010393F83B3033B1D9
:104918002C2303FB010181F85420002070472C232D
:1049280003FB010181F85520F7E708B5FCF730FAD9
:1049380008BD022805D8DFE800F0050402000120C0
:1049480070470220704708B5D0F8D003FDF7EFF89C
:10495800FFF7EFFF08BD08B5D0F8D003FDF7FCF866
:10496800FFF7E7FF08BD08B5D0F8D003FDF706F953
:10497800FFF7DFFF08BD10B584B0D0F8D003BDF84D
:10498800204002949DF81C4001949DF81840009422
:10499800FCF7BBFBFFF7CDFF04B010BD08B5D0F89E
:1049A800D003FCF7F9FBFFF7C4FF08BD10B584B0CE
:1049B800D0F8D0039DF824400394BDF82040029419
:1049C800079C01949DF818400094FCF741FCFFF700
:1049D800B0FF04B010BD000008B5024600B10122C6
:1049E80001210248FCF73CFB08BD00BF000802405B
:1049F800DFF834D00D480E490E4A002302E0D4589F
:104A0800C4500433C4188C42F9D30B4A0B4C00230E
:104A180001E013600432A242FBD3FCF75DF9FBF717
:104A2800F3FBFCF743F87047000002200000002069
:104A380090000020904A0008900000209408002070
:104A4800FEE70000F8B500BFF8BC08BC9E467047FA
:0C4A5800F8B500BFF8BC08BC9E467047D3
:104A6400000000000000000001020304060708091A
:0C4A740000000000010203044344430062
:084A800084BAFF7F0100000071
:044A8800F101000830
:044A8C00C901000854
:104A900004000020000000000000000000000000F2
:104AA0000000000000000000000000000000000006
:104AB00000000000000000000000000000000000F6
:104AC00000000000000000000000000000000000E6
:104AD00000000000000000000000000000000000D6
:104AE00000000000000000000000000000000000C6
:104AF000000000000024F40001000000100000008D
:104B00007C4A0008020000007B35000813350008CD
:104B1000F134000803380008B93400080000000030
:04000005080049F9AD
:00000001FF
